:020000040000FA
:10000000809EFF1F21070000D97500002B0700000C
:100010002D0700002F07000031070000000000003E
:100020000000000000000000000000003307000096
:100030003507000000000000370700003907000006
:10004000F5670000FF670000096800001368000002
:100050001D680000456800004F68000059680000F6
:10006000636800006D680000776800008168000028
:100070008B680000956800009F680000A968000078
:100080003B0700003B0700003B0700003B07000068
:100090003B0700003B0700003F4600003B07000015
:1000A0003B0700003B070000DD610000E761000046
:1000B000F1610000517D00003B0700003B0700009C
:1000C0003B0700003B0700003B0700003B07000028
:1000D0003B0700005B7D00003B0700003B07000082
:1000E0003B0700003B0700003B0700003B07000008
:1000F0003B070000AB4400003B070000B544000094
:100100003B070000BF4400003B070000C94400005B
:100110003B070000D34400003B070000DD44000023
:100120003B070000E34D0000F34D00003B070000DB
:100130003B0700003B0700007B5B0000E15B000029
:10014000475C00003B0700001D6C00003B070000FF
:10015000C3470000CD470000D7470000E14700003B
:10016000198600003B0700003B0700003B0700002A
:10017000CB710000E77100003B0700003B07000067
:100180003B070000F9820000038300004774000071
:100190003B070000136400003B070000A73B000082
:1001A000B13B0000BB3B0000C53B0000CF3B000063
:1001B0003B0700003B0700003B0700003B07000037
:1001C0003B0700003B0700003B0700003B07000027
:1001D0003B0700003B0700003B0700003B07000017
:1001E0003B0700003B0700003B0700003B07000007
:10040000FFFFFFFFFFFFFFFFFFFFFFFFFEFFFFFFFD
:1004100000F002F800F05FF80AA090E8000C8244B7
:100420008344AAF10107DA4501D100F054F8AFF294
:10043000090EBAE80F0013F0010F18BFFB1A43F0C2
:1004400001031847E8A9000008AA00000A444FF079
:10045000000C10F8013B13F0070408BF10F8014B23
:100460001D1108BF10F8015B641E05D010F8016B68
:10047000641E01F8016BF9D113F0080F1EBF10F8CC
:10048000014BAD1C0C1B09D16D1E58BF01F801CBEF
:10049000FAD505E014F8016B01F8016B6D1EF9D572
:1004A0009142D6D370470000002300240025002687
:1004B000103A28BF78C1FBD8520728BF30C148BFC7
:1004C0000B607047642908F00981002070471FB550
:1004D0001FBD10B510BD08F069FA1146FFF7F7FF10
:1004E00000F086FA08F087FA03B4FFF7F2FF03BCC6
:1004F00008F088FAC0BA70474CF220508049C88191
:100500004DF62810C8814FF4E97008804FF0FF3095
:100510007C49486400207C4908707A48406820F093
:100520000100784948602420784948709A20087072
:100530000846C07800F01F00C87003200871002032
:10054000487100BF7148807900F002000028F9D09E
:1005500000BF6E48807900F010000028F9D100BF7C
:100560006A48807900F00C000828F9D11820674902
:1005700008715A20487166486249486400BF634860
:10058000807900F020000028F9D000BF5F48807912
:1005900000F040000028F9D01A205C49087000BF24
:1005A0005A48807900F00C000C28F9D100BF574858
:1005B000807900F040000028F9D07047534A127843
:1005C00002F0C002002A67D1504A527902F040027C
:1005D000002A51D14D4A127802F00402C2B94B4AA6
:1005E000127B02F001020AB94A4801E04FF40040D0
:1005F000464A1278C2F3C20301229A40D1B2B0FB3C
:10060000F1F0424A527802F030021AB1400901E09A
:100610004FF400403D4AD27802F0E00202F01F039E
:1006200043BB5211082A25D2DFE802F004080C105F
:1006300014181C2000EB8002D0011CE000EB8002AB
:10064000100218E0C0EB0012D00114E000EB8002B1
:10065000500210E04FF4377250430CE04FF4B76291
:10066000504308E040F69502504304E040F67132F2
:10067000504300E000BF38E0244A127902F01F0224
:10068000511C244AB2FBF1F0204A527902F01F02B9
:1006900002F11801484328E01C4A127802F0C00217
:1006A000402A11D1194A527802F0010212B94FF4CE
:1006B00000401AE0154A127AC2F3420301229A401E
:1006C000154BB3FBF2F010E0104A127802F0C002B2
:1006D000802A09D10D4A127B02F001020AB90D48A5
:1006E00003E04FF4004000E07047064A526C0123DB
:1006F00003EB1272B0FBF2F2084B1A6000BFF3E793
:1007000000200540008004400050064000400640A4
:100710000000130180F0FA0200093D000080FF1F75
:100720000948804709480047FEE7FEE7FEE7FEE785
:10073000FEE7FEE7FEE7FEE7FEE7FEE704480549C1
:10074000054A064B70470000F90400001104000040
:10075000808AFF1F809EFF1F808EFF1F808EFF1FDD
:1007600010B5FE480068002848D1FD498863012083
:10077000FC49086001F0EFFA02F081F8FA48002124
:100780000268084601F003F8F848012102680020D9
:1007900000F0FDFFF64802210268002000F0E6FFAD
:1007A000F44802210268282000F0E0FFF24802210C
:1007B0000268502000F0DAFFF048032102680020B0
:1007C00000F0D4FFEE4803210268282000F0CEFF9D
:1007D000EC4803210268502000F0C8FFEA48006896
:1007E00009F0AAF9044622460421002000F0CFFFB8
:1007F000642006F0E5FE00F03AFB2EE00120D84927
:1008000088630020D7490860E0480078C7281ADDCF
:10081000DF48006818B1DE48001D006898B9DD485F
:100820000078401CDB4908700846007802280AD18D
:10083000D949084600F01AFA4FF4FA7006F0C0FEE3
:100840000020D6490870D648006818B90120D5495B
:10085000C86602E00020D349C86610BDCC481038F5
:100860000068012817D1CA4814380068012812D13D
:10087000C7481838006801280DD1C5481C380068E1
:10088000012808D1C84908800020C8490880C84903
:100890000880C8490880BE4810380068B8B9BC480C
:1008A00014380068012812D1B948183800680128A6
:1008B0000DD1B7481C380068012808D1BA49088012
:1008C0000020BA490880BA490880BA490880B0486F
:1008D00010380068012818D1AD4814380068A0B954
:1008E000AB481838006801280FD1A9481C380068A7
:1008F00001280AD10020AC4908800120AB490880BA
:100900000020AB490880AB490880A1481038006836
:10091000012818D19E4814380068012813D19C483A
:100920001838006878B99A481C38006801280AD13C
:1009300000209D4908809D49088001209C4908802D
:1009400000209C490880924810380068012817D17F
:100950008F4814380068012812D18D481838006873
:1009600001280DD18A481C38006848B900208E49FA
:1009700008808E4908808E49088001208D490880B2
:1009800070478D480078401C8B49087008460078F5
:10099000052190FBF1F201FB120010B901208749FB
:1009A0000880854800780A2190FBF1F201FB1200D3
:1009B000032802D10120824908807F480078642101
:1009C00090FBF1F201FB1200022810D101207D49B9
:1009D00008800220784908706C480078401C6B49F8
:1009E000087008460078C82801DDC82008707047E4
:1009F0001CB506F0E1FD4FF4E1314AF2C80003F006
:100A0000C0FC01F0D3FA01F08FFE00F058FA00228A
:100A10001921104602F06BFF04220E21002002F083
:100A200066FF04220021022002F061FF042201215E
:100A3000022002F05CFF04221B21104602F057FF47
:100A400002220B21104602F052FF02220C21104616
:100A500002F04DFF02220621042002F048FF02228C
:100A60000721042002F043FF02220B21042002F0A0
:100A70003EFF02220C21042002F039FF0222042151
:100A8000104602F034FF02220521104602F02FFF2B
:100A900002220621104602F02AFF022207211046F8
:100AA00002F025FF04220621104602F020FF01205B
:100AB0008DF800004FF47A700190684603F0D4FD81
:100AC0004149012003F05DFE01220021104603F0A0
:100AD00004FE42F2107200213C4804F0DBFD42F2B9
:100AE000107200213A4804F0D5FD42F21072002144
:100AF000384804F0CFFD42F210720021364804F06D
:100B0000C9FD04220621104602F0F1FEA2E0FFF723
:100B100027FEFFF7A3FE2948008801281DD102F017
:100B20003AFD2E49086001F0A2FD2D49086001F050
:100B300096F92C4908602A4801682A48006809F09B
:100B40004FF9044608F0DCFF2749086008460068B2
:100B500026490860084600684AE069E06402FE43EE
:100B60000000FE430010FE437080FF1F6C80FF1FDB
:100B70006481FF1F6C81FF1F7481FF1F6881FF1F4D
:100B80007081FF1F7881FF1FB881FF1F2A80FF1F20
:100B90002C12FE432980FF1F30F8FFFF3C80FF1F0F
:100BA000C881FF1F0020FE433480FF1F3680FF1FD7
:100BB0003880FF1F3A80FF1F2880FF1F2C80FF1FF7
:100BC0003080FF1F2E80FF1F83090000C0480800EF
:100BD000C04A1000C04C1800C04E20000C80FF1FFF
:100BE0000480FF1F0880FF1F2080FF1F2480FF1F3D
:100BF00008F0A2FF074618480168384608F050FE82
:100C0000064608F07DFF04461448006808F094FF8B
:100C1000074611480168384609F0E2F8064608F030
:100C20006FFF0546214600F021F800200C4908809E
:100C30000C480088012804D101F004FC0020094977
:100C4000088009480088012804D101F0C2FF002073
:100C5000054908805BE700000C80FF1F2080FF1F14
:100C60002C80FF1F2E80FF1F3080FF1F70B50546B0
:100C70000C46002D01DB05F59675002D01DAA5F572
:100C8000A075002C01DB04F59674002C01DAA4F5A4
:100C9000AF7442F21070854200DB05462048854261
:100CA00000DA054642F21070844200DB04461C481C
:100CB000844200DA04461B48007808B90025002465
:100CC000002D0ADD2A460421002004F095FC0022B4
:100CD0000321104604F090FC09E000220421104694
:100CE00004F08AFC6A420321002004F085FC002CF9
:100CF0000ADD22460121002004F07EFC00220221B0
:100D0000104604F079FC09E000220121104604F0AD
:100D100073FC62420221002004F06EFC70BD0000F2
:100D2000F0D8FFFF3C80FF1F30B50146FA4C6268E7
:100D3000FA4C2468FA4DB4FBF5F404FB01F3D01827
:100D4000904205D900BFF44C64688442FBD309E0AB
:100D500000BFF14C64688442FBD800BFEE4C64686D
:100D60008442FBD330BD30B5044608250120ED494F
:100D70004867002088660520FFF7D6FF17E004F0DB
:100D8000800018B10120E749C86602E00020E5496B
:100D9000C8660520FFF7C8FF0120E24988660520E4
:100DA000FFF7C2FF0020DF4988666006040E2800B6
:100DB000A5F10101CDB2E2D130BD30B50446082520
:100DC0000020D849486788660520FFF7ADFF17E087
:100DD00004F0800018B10120D249C86602E000206A
:100DE000D049C8660520FFF79FFF0120CD498866DE
:100DF0000520FFF799FF0020CA4988666006040EA7
:100E00002800A5F10101CDB2E2D130BD30B50446D4
:100E10000D4605F1B001C8B2FFF7CFFF102141EA3E
:100E20001410FFF7CAFF04F00F0141F00100FFF7B3
:100E3000C4FF30BD70B50646002415E004F1B001D2
:100E4000C8B2FFF7BAFF0120FFF7B7FF1020FFF786
:100E5000B4FF002504E03046FFF785FF681CC5B2EB
:100E6000802DF8DB601CC4B2082CE7DB70BD30B508
:100E7000002415E004F1B001C8B2FFF79EFF012085
:100E8000FFF79BFF1020FFF798FF002504E00020EC
:100E9000FFF769FF681CC5B2802DF8DB601CC4B287
:100EA000082CE7DB30BD07E040F22C4100BF0A0010
:100EB000A1F10101FBD1401E0028F5D1704710B50A
:100EC00004221A21002002F012FD04221B2100201E
:100ED00002F00DFD04221C21002002F008FD042276
:100EE0001D21002002F003FD01208E4988660020AC
:100EF0000867322006F064FB01208A490867AE20AB
:100F0000FFF75BFF0020FFF758FF1020FFF755FFAA
:100F10004020FFF752FF8120FFF74FFFCF20FFF760
:100F20004CFFA120FFF749FFC820FFF746FFA6208E
:100F3000FFF743FFA820FFF740FF3F20FFF73DFFEB
:100F4000D320FFF73AFF0020FFF737FFD520FFF748
:100F500034FF8020FFF731FFD920FFF72EFFF1206B
:100F6000FFF72BFFDA20FFF728FF1220FFF725FFFE
:100F7000DB20FFF722FF4020FFF71FFF2020FFF7B5
:100F80001CFF0220FFF719FF8D20FFF716FF14202A
:100F9000FFF713FFA420FFF710FFA620FFF70DFFB8
:100FA000AF20FFF70AFF0020FFF744FF00210846AB
:100FB000FFF72CFF10BD70B505460C4621462846AC
:100FC000FFF724FF2046E11704EB5171C910A4EB91
:100FD000C10201219140CEB2B02101EBE401C8B2BF
:100FE000FFF7EBFE102141EA1510FFF7E6FE05F0D2
:100FF0000F00FFF7E2FE3046FFF7B5FE70BD2DE9AA
:10100000F04707460C4690461D46DDF820A0E1104B
:101010003846FFF7FBFE3E4613E0A146E11704EB1E
:101020005171C910A4EBC10201219140C8B2FFF770
:101030009AFEBAF1010F02D13220FFF734FF701C83
:10104000C6B24645E9DDE9103846FFF7DFFE3E4609
:1010500013E0A946E91705EB5171C910A5EBC102D0
:1010600001219140C8B2FFF77EFEBAF1010F02D113
:101070000520FFF718FF701CC6B24645E9DDBDE844
:10108000F0872DE9F0430446884615464FF00009E5
:101090000026002720E0E85D203800F0FF097E2CC4
:1010A00004DD002408F1010000F0FF08414620465D
:1010B000FFF7ACFE002609E009EB49011A4A02EBF2
:1010C0004101885DFFF74FFE701CC6B2062EF3DBB0
:1010D000A01DC4B2781CC7B2E85D0028DBD1BDE812
:1010E000F0832DE9F0430446884615464FF0000989
:1010F000002600272CE0E85D203800F0FF097E2C58
:1011000004DD002408F1010000F0FF0841462046FC
:10111000FFF77CFE002615E0001000E00080FF1FB6
:10112000809698000000FE43BA9F000009EB490139
:10113000FD4A02EB4101895DC943C8B2FFF713FEC6
:10114000701CC6B2062EF1DBA01DC4B2781CC7B25B
:10115000E85D0028CFD1BDE8F0832DE9F0410546D8
:101160000E4617464FF000080024A7F1200000F0BB
:10117000FF087E2D02DD0025701CC6B231462846D0
:10118000FFF744FE002409E008EB4801E64A02EBC1
:101190004101085DFFF7E7FD601CC4B2062CF3DBDC
:1011A000BDE8F0812DE9F04306460F469046002544
:1011B0000024A14631E018F809002038C5B2782E85
:1011C00002DD0026781CC7B239463046FFF71EFE06
:1011D000002407E004EB0511D44A505CFFF7C3FD7F
:1011E000601CC4B2082CF5DB781CC1B23046FFF796
:1011F0000DFE002408E004EB05110831CB4A505CD9
:10120000FFF7B1FD601CC4B2082CF4DB06F1080046
:10121000C6B209F1010000F0FF0918F80900002822
:10122000C9D1BDE8F083F8B506460F46144600253F
:101230000FE0605D8DF8000000208DF801006A4627
:1012400039463046FFF71DFF06F10800C6B2681C9C
:10125000C5B2605D0028ECD1F8BD2DE9F04F06461F
:101260000F4690461C46DDF824A04FF0000BE11716
:1012700004EB5171C910A4EBC10131B92046E1174B
:1012800004EB5171C1F3C70506E02046E11704EBFA
:101290005171C910491CCDB23D4614E02946304673
:1012A000FFF7B4FDB1460AE059460BF1010B1AF8FD
:1012B0000100FFF758FD09F1010000F0FF09C145E9
:1012C000F2DB681CC5B2A542E8DDBDE8F08F2DE970
:1012D000F04F05468B461446002C06DA2D2259465F
:1012E0002846FFF73AFF644204E02B22594628467D
:1012F000FFF733FF42F2107094FBF0F000F0FF09AB
:1013000042F2107094FBF0F100FB11404FF47A713F
:1013100090FBF1F000F0FF0A084694FBF0F100FBAF
:101320001140642190FBF1F0C6B2642094FBF0F10F
:1013300000FB11400A2190FBF1F0C7B20A2094FB98
:10134000F0F100FB114000F0FF0809F13001CAB2D2
:10135000A91DC8B25946FFF700FF0AF13001CAB211
:1013600005F10C01C8B25946FFF7F7FE06F130014E
:10137000CAB205F11201C8B25946FFF7EEFE07F1F5
:101380003001CAB205F11801C8B25946FFF7E5FEAF
:1013900008F13001CAB205F11E01C8B25946FFF783
:1013A000DCFEBDE8F08F2DE9F04F04468A46154675
:1013B00098462E2251462046FFF7CFFE4FF47A7012
:1013C000B5FBF0F000F0FF0B4FF47A70B5FBF0F1D5
:1013D00000FB11506421B0FBF1F000F0FF09642024
:1013E000B5FBF0F100FB11500A21B0FBF1F70A2028
:1013F000B5FBF0F100FB1156B8F1010F09D0B8F1BF
:10140000020F0FD0B8F1030F1ED0B8F1040F5AD15C
:1014100035E006F13001CAB2A11DC8B25146FFF74E
:101420009CFE50E007F13001CAB2A11DC8B251467E
:10143000FFF793FE06F13001CAB204F10C01C8B205
:101440005146FFF78AFE3EE009F13001CAB2A11D04
:10145000C8B25146FFF781FE07F13001CAB204F16C
:101460000C01C8B25146FFF778FE06F13001CAB24E
:1014700004F11201C8B25146FFF76FFE23E00BF1F1
:101480003001CAB2A11DC8B25146FFF766FE09F18C
:101490003001CAB204F10C01C8B25146FFF75DFE3B
:1014A00007F13001CAB204F11201C8B25146FFF788
:1014B00054FE06F13001CAB204F11801C8B2514617
:1014C000FFF74BFE00BF00BFBDE8F08F2DE9FF4FD7
:1014D00087B00446062005904FF0000A099808F0EE
:1014E0000FFB0546099808F00BFB019008F024FB60
:1014F0000290099908F069FC0D49039008F068FB17
:10150000049008F0FDFA8046099808F09DF9094A10
:10151000094BCDE9020107F09BFE0FD22D22204698
:101520000899FFF71AFE0EE0BA9F0000E2A1000042
:1015300000401C4648AFBC9AF2D77A3E2B22204688
:101540000899FFF70AFE002D00DA6D42AA4642F222
:101550001070BAFBF0F0C0B2069042F21070BAFB05
:10156000F0F100FB11A04FF47A71B0FBF1F000F044
:10157000FF0B0846BAFBF0F100FB11A06421B0FBA1
:10158000F1F000F0FF096420BAFBF0F100FB11A0BC
:101590000A21B0FBF1F60A20BAFBF0F100FB11A71B
:1015A000069860B306993031CAB2A11DC8B2089935
:1015B000FFF7D3FD0BF13001CAB204F10C01C8B240
:1015C0000899FFF7CAFD09F13001CAB204F112010E
:1015D000C8B20899FFF7C1FD06F13001CAB204F1A3
:1015E0001801C8B20899FFF7B8FD07F13001CAB277
:1015F00004F11E01C8B20899FFF7AFFD67E0BBF127
:10160000000F25D0052005900BF13001CAB2A11DB5
:10161000C8B20899FFF7A1FD09F13001CAB204F17F
:101620000C01C8B20899FFF798FD06F13001CAB263
:1016300004F11201C8B20899FFF78FFD07F13001DC
:10164000CAB204F11801C8B20899FFF786FD3EE05E
:10165000B9F1000F1CD00420059009F13001CAB285
:10166000A11DC8B20899FFF778FD06F13001CAB292
:1016700004F10C01C8B20899FFF76FFD07F13001C2
:10168000CAB204F11201C8B20899FFF766FD1EE064
:101690009EB10320059006F13001CAB2A11DC8B267
:1016A0000899FFF75AFD07F13001CAB204F10C01A5
:1016B000C8B20899FFF751FD09E00220059007F133
:1016C0003001CAB2A11DC8B20899FFF746FDB8F1B2
:1016D000000F01DAC8F100080A98052842D2DFE8B5
:1016E00000F00304152535003CE04FF47A7098FBB8
:1016F000F0F00490059901EB410104EB4101C8B2FF
:101700000A9B049A0899FFF74EFE2BE0642098FB91
:10171000F0F00490059901EB410104EB4101C8B2DE
:101720000A9B049A0899FFF73EFE1BE00A2098FBEB
:10173000F0F00490059901EB410104EB4101C8B2BE
:101740000A9B049A0899FFF72EFE0BE0059901EB1E
:10175000410104EB4101C8B242460A9B0899FFF7D8
:1017600022FE00BF00BF0BB0BDE8F08F70B586B0A1
:1017700004460D46164632460AA101A806F066FF49
:1017800001AA29462046FFF77CFC06B070BD70B563
:1017900004460D4616460223324629462046FFF7E8
:1017A00095FE70BD2564000010B542EA4103D9B230
:1017B000E24B53F820309B7843F03003DF4C54F871
:1017C0002040A370DD4B53F82030197110BD01206B
:1017D00005E0411C88B2411E88B2411C88B2C8286D
:1017E000F7DB7047F0B504460D4617460022294640
:1017F0002046FFF7D9FF00BFD04850F82400C0783A
:1018000000F002000028F7D0CC4850F82400C0783F
:1018100040F00200C94951F82410C870C74850F878
:101820002400077100BFC54850F82400C07800F0BC
:1018300002000028F7D0C14850F82400C07840F0DA
:101840000200BE4951F82410C870BC4850F824006A
:10185000807840F00400B94951F8241088700120C4
:1018600000EB4500B54951F82410087100BFB3489A
:1018700050F82400C07800F002000028F7D0AF48EC
:1018800050F82400C07840F00200AC4951F8241010
:10189000C870AA4850F82400807820F01000A749AA
:1018A00051F824108870A54850F82400807840F042
:1018B0000800A24951F824108870A04850F824006C
:1018C000067900BF9D4850F82400C07800F002005F
:1018D0000028F7D0994850F82400C07840F0020062
:1018E000964951F82410C870944850F82400807824
:1018F00020F03000914951F8241088708F4850F83A
:10190000240006793046F0BDF0B504460F46154672
:101910001E46002239462046FFF746FF00BF874893
:1019200050F82400C07800F002000028F7D0834867
:1019300050F82400C07840F00200804951F824108B
:10194000C8707E4850F82400057100BF7B4850F8ED
:101950002400C07800F002000028F7D0774850F843
:101960002400C07840F00200744951F82410C87077
:10197000724850F82400067100BF704850F82400E7
:10198000C07800F002000028F7D06C4850F824001E
:10199000C07840F00200694951F82410C8706748C7
:1019A00050F82400807820F03000644951F8241069
:1019B0008870FFF70CFFF0BD00B503230D22202136
:1019C0000120FFF7A1FFFFF702FF032313222021CD
:1019D0000120FFF799FFFFF7FAFE00BD00B50523D0
:1019E0002A221E210120FFF78FFFFFF7F0FE00BD26
:1019F0002DE9F04180460C4615461E46002703227D
:101A000041460120FFF7EEFEA070FFF7E0FE042242
:101A100041460120FFF7E6FEE070FFF7D8FE052201
:101A200041460120FFF7DEFE2071FFF7D0FE0622BF
:101A300041460120FFF7D6FE6071FFF7C8FE6178CE
:101A40002078384341EA002000B22880E178A0786D
:101A5000384341EA002000B2688061792079384338
:101A600041EA002000B2A880B5F900008010308063
:101A7000B5F9020080107080B5F904008010B080C4
:101A8000BDE8F08170472E49496B41F080012C4A36
:101A900051634FF4C0612B4A51601146496841F0CF
:101AA000200151604FF4C06111601146096841F096
:101AB000200111600021214A52F82020517080211C
:101AC0001E4A52F820209170704710B589B0044624
:101AD0000120FFF7D8FFFFF76FFFFFF77FFF05AB90
:101AE00007AA69462020FFF783FFBDF81E00ADF866
:101AF0000A00BDF82000ADF80C0005AB07AA694646
:101B00001E20FFF775FFBDF81800ADF8120002A8FF
:101B100030F9140009B010BDF0B507460C46002599
:101B2000002606E03846FFF7D0FF284405B2701CB7
:101B3000C6B2A642F6DB95FBF4F0F0BD4080FF1F75
:101B40000080044000D004402DE9F04105460C46D9
:101B5000D5480168204608F043F90746D348016894
:101B6000384608F035F80646D1480168304607F097
:101B700097FECF490860CF484168CF48006808F019
:101B80002FF90646CB488168304608F029F9CB4941
:101B90000860C848C06880F000404860C548C06818
:101BA00080F000408860C6480068C8600868BF4987
:101BB000096808F00DF80646BE480168304607F08F
:101BC0006FFEBC490860BD494868B849096807F01C
:101BD000FFFF0646B7484168304607F061FEB54949
:101BE0004860B6498868B149096807F0F1FF0646C0
:101BF000B0488168304607F053FEAE498860AF496F
:101C0000C868AA49096807F0E3FF0646A948C16801
:101C1000304607F045FEA749C860A5480168284638
:101C200008F0DEF8A7490860A2480168A6480068E5
:101C300007F0CEFFA54908609E488168A248006869
:101C400007F0C6FFA2490860A04801689E480068E6
:101C500007F0BEFF06469F480168304607F020FEA9
:101C60009D490860084601689848006807F086FEAC
:101C70009A490860984801689548006807F07EFE18
:101C8000974908609148006896490860894841680A
:101C90008D48006807F09CFF9349086091480168EF
:101CA0008E48006807F094FF064682480168304677
:101CB00008F08BF87F4908608B4801688748006806
:101CC00007F086FF06467B484168304608F07DF8FD
:101CD00078494860834801688148006807F078FFC8
:101CE000064674488168304608F06FF8714988608C
:101CF0007D4801687A48006807F06AFF06466D482B
:101D0000C168304608F061F86A49C8606D480168EA
:101D10007248006807F05CFF064665480168304677
:101D200007F0BEFD62490860664801686C480068BB
:101D300007F04EFF06465C480168304607F0B0FDEC
:101D40005949086008460168204608F049F8674983
:101D50000860BDE8F0812DE9FF5F0120FFF7B5FEC7
:101D600003900520FFF7B1FE02900220FFF7ADFEC1
:101D70000190029807F0E0FE04465D4801682046A5
:101D800007F0F2FF05D85A48006807F0B9FE00B224
:101D90000290029807F0D0FE04465648016820469B
:101DA00007F0E2FE05D85348006807F0A9FE00B22C
:101DB0000290039807F0C0FE009007F045FD8046B2
:101DC0004D4A4E4B07F080FA064600224C4B07F076
:101DD000E7F804464B4A4C4B07F04CFC824606F0B1
:101DE000F1FF4A490860029807F0A6FE83464FF0CB
:101DF0008B4107F0C3FD824607F026FD804606F0C2
:101E000083FE0646424A434B07F05EFA81F00041EA
:101E1000044606F0D7FF40490860019807F08CFEA1
:101E2000009007F011FD0646334A344B07F04CFA98
:101E300004460022324B07F0B3F88046314A324B59
:101E400007F018FC824606F0BDFF344908602F48B1
:101E5000016831480068FFF777FEBDE8FF9F2DE974
:101E6000F047002500260027A846FFF774FF2C48FE
:101E700001680F48006807F0B3FF04462348016873
:101E80002848006807F0A4FE8146214626480068DD
:101E900007F09EFE8246494607F002FD054637469A
:101EA00026462846BDE8F0879C80FF1F8080FF1FE4
:101EB0006C80FF1F8480FF1F7480FF1F0483FF1F3F
:101EC0007880FF1FA080FF1F9480FF1FA480FF1F4A
:101ED000A880FF1F7C80FF1F9880FF1FAC80FF1F22
:101EE000B080FF1FB480FF1FB880FF1F7080FF1FEE
:101EF0005480FF1F5880FF1F48E17A14AE471F40EF
:101F000000408F40530ABABD26DCD5BF6080FF1F5A
:101F100012143FC6DCA54C406480FF1F6880FF1F81
:101F2000C880FF1FC080FF1FBC80FF1F70B58CB032
:101F300004460D46164600223146284601F0D7FCDD
:101F4000F1B201230022284601F04AFD3021684603
:101F500006F045FCE0B28DF80000414810F825007D
:101F60008DF8010000208DF806000120ADF8020078
:101F700047F6FF70ADF804003A4803900020059042
:101F800002908DF810008DF8180037480890002056
:101F90000A9007908DF824008DF82C00684604F014
:101FA0004FFAE0B204F043FB0CB070BD10B5002254
:101FB0001621012001F09BFC00220921104601F0AE
:101FC00096FC172201210020FFF7B0FF0822002114
:101FD0000120FFF7ABFF10BD10B5002004F009FB96
:101FE00047F6FF71081A21490860012004F001FB3F
:101FF00047F6FF71081A1D4948601D48006818B966
:10200000084600681B49086019480068012804D187
:1020100016480068404217490860174800680128C0
:1020200003D112484068154908601348006820B978
:102030000E48406840421149086004F0C5FB47F66D
:10204000FF71002004F0DDFA47F6FF71012004F073
:10205000D8FA002004F0EBFA012004F0E8FA10BDF1
:10206000D4A70000DC80FF1FDD80FF1FD480FF1F8E
:10207000580AFE43CC80FF1F2402FE43D080FF1F7E
:1020800010B5FFF7A9FFFE480068FE490860FE484A
:102090000068FE49086010BD2DE9F04105460021A9
:1020A000284607F061FE01D2284601E085F0004095
:1020B0000646F7480168304607F056FD02D84FF053
:1020C0007E542EE0F2480168304607F04DFE1CD2E7
:1020D000EF480168EF48006807F0E2FB0746314629
:1020E00007F042FE11D8EA480168EA48006807F0A4
:1020F000D7FB8046314607F073FE0746E548016886
:10210000384607F03BFC04460BE0E1480168E14833
:10211000006807F0C5FB0746314607F025FD00D2F1
:1021200000242046BDE8F0812DE9F05F06460F4609
:102130003946304607F054FE0446D7480168204629
:1021400007F046FD82465146D448006807F0A8FBD8
:10215000D2490860D248008801284CD1D149D248E0
:10216000006807F001FE1AD20020CB490860CF4872
:10217000CF490860CF48D04908604FF08240CF492E
:102180000860CF48CF490860CF48D0490860D0499F
:10219000C248006807F0F2FBC04908602BE04FF02E
:1021A0008141C148006807F0DFFC12D2C948BA4932
:1021B0000860C948BE490860C848BF490860C848A7
:1021C000BE490860C748BF490860B848BF490860B1
:1021D00011E0C548B0490860C448B5490860C44822
:1021E000B5490860C348B5490860BE48B5490860AC
:1021F000C148B6490860C148008801284CD1A949A6
:10220000A948006807F0B0FD19D20020A249086073
:10221000BB48A7490860BB48A7490860A148A7492F
:102220000860B948A7490860B848A8490860A849A3
:102230009A48006807F0A2FB984908602CE04FF02C
:1022400081419948006807F08FFC12D2B04892494A
:102250000860B04896490860AF4897490860A548AB
:1022600096490860AD4897490860974897490860C3
:1022700012E0984888490860A9488D490860A94833
:102280008D4908604FF082408C490860A3488D4911
:102290000860A5488D490860A448008801284BD1F2
:1022A000A3498148006807F05FFD19D200207A49F0
:1022B000086093487E4908609E487F4908609E48B0
:1022C0007E49086090487F4908609C487F490860C3
:1022D0007F497248006807F051FB704908602BE0A5
:1022E00097497148006807F03FFC13D295486A4946
:1022F000086095486E49086094486F4908604FF03F
:1023000082406E49086085486E49086067486F4999
:10231000086011E08E48604908608148644908609F
:102320008C48654908605F48644908607B48654996
:1023300008607148654908608748008801284AD1CB
:1023400086495948006807F00FFD19D2002052490C
:1023500008606B48564908608148574908608148C1
:1023600056490860804857490860684857490860DE
:1023700057494A48006807F001FB484908602AE0CD
:102380005C494948006807F0EFFB12D270484249A7
:1023900008606D48464908607448474908606448C9
:1023A00046490860724847490860724847490860D2
:1023B00011E071483849086059483D4908606F4844
:1023C0003D4908606E483D49086069483D490860DC
:1023D00049483E4908606B493048006807F0C4FC32
:1023E00002D268482D49086067492C48006807F008
:1023F000BBFB02D264482949086064480168204652
:1024000007F0EEFC83462C480168584607F0E0FBD5
:10241000804621462648006807F0DAFB83461F48BD
:102420000168584607F03CFA8146414607F038FA01
:1024300005465648006856490860544804602846D6
:10244000BDE8F09F2DE9F05FFFF71AFE0D48056823
:10245000284607F071FB82464E4801684FF07E50D7
:1024600007F0BEFC8346514607F0B2FB80460548A4
:10247000006807F061FB82464648016850468BE0E1
:10248000D080FF1FE480FF1FCC80FF1FE080FF1F74
:102490002481FF1F2081FF1FF080FF1F0881FF1F85
:1024A0003480FF1F00001041E880FF1F0000AC4295
:1024B000EC80FF1F000096C3F480FF1FF880FF1F11
:1024C000333353C1C880FF1F0000B242BC80FF1FDE
:1024D000000090410AD7A33D000092420000A5C32E
:1024E0000000C040CDCC4CC1CDCC4C3D000098424A
:1024F00000809DC30000E0400000B0423680FF1F16
:102500000000A6420000DCC39A9951C10000BA4203
:102510009A99193E00009E420000F0C333334BC12C
:102520000000A2420000E6C30000B6423880FF1F50
:10253000000030410000AAC3000020410000B84262
:102540000000A0409A99993E000084420000BEC35A
:10255000CDCC4C3E0000B4C33A80FF1F0000604168
:102560000000C8C300005041666686C10000D7C3A2
:10257000666682C10000B442CDCCCC3D0080CFC3A2
:102580000000404100007A4400007AC42881FF1F07
:102590002C81FF1F3081FF1F07F01AFB8146414647
:1025A00007F07EF9074607F0ABFA5049086050483B
:1025B0000668304607F0C0FA82464E4801684FF080
:1025C0007E5007F00DFC8346514607F001FB804624
:1025D0004748006807F0B0FA82464648016850460E
:1025E00007F0F6FA8146414607F05AF9074607F028
:1025F00087FA3F4908603D4909683D4A12688818D2
:1026000007F09AFA80464FF0804107F0B7F9074685
:10261000394907F0B3F93949086008460168384874
:10262000006807F0DDFB3749086037480168354826
:10263000006807F0D5FB3549086032480068324928
:1026400008602E4801682E480068FFF76DFD0446BB
:102650002F4800682F4908602D4804600020234956
:102660000860234908602C490860BDE8F09F2DE907
:10267000F041284801682648006807F0B1FB07468A
:102680004FF07E512448006807F00AF98046394629
:1026900007F09EFA0646214907F070F905461D48E5
:1026A0000168284607F0FCF804464FF07E511A48AE
:1026B000006807F0F5F818490860184916480068DE
:1026C00007F052FB02D80020134908601449204645
:1026D00007F04AFB00D2124C1249204607F044FA98
:1026E00000D2104C2046BDE8F0810000E480FF1FBE
:1026F000E080FF1F3081FF1F00007042E880FF1F55
:10270000F880FF1F1481FF1F1081FF1F1881FF1F1A
:102710000481FF1F0081FF1FFC80FF1F0000A041FC
:1027200000007A4400007AC40EB5012000908DF8B4
:10273000050002208DF8060000208DF804008DF8B9
:10274000070001208DF8080004208DF80900002002
:102750008DF80A00684602F0E3F800220421012007
:1027600000F082FF00220521012000F07DFF002201
:102770000621012000F078FF00220721012000F04F
:1027800073FF00220A21012000F06EFF00220B21BE
:10279000012000F069FF0021012002F029FA0EBD9E
:1027A00010B500220D21012002F083FA00BF0021A4
:1027B000012002F029F80128F9D00021012002F0BF
:1027C00093FAB549086000220C21012002F071FA49
:1027D00000BF0021012002F017F80128F9D00021E4
:1027E000012002F081FAAD49086000220F2101208A
:1027F00002F05FFA00BF0021012002F005F8012875
:10280000F9D00021012002F06FFAA54908600022EA
:102810000A21012002F04DFA00BF0021012001F041
:10282000F3FF0128F9D00021012002F05DFA9D4953
:10283000086000220E21012002F03BFA00BF0021B7
:10284000012001F0E1FF0128F9D00021012002F070
:102850004BFA9549086000220B21012002F029FA69
:1028600000BF0021012001F0CFFF0128F9D0002195
:10287000012002F039FA8D490860002010BD2DE9D1
:10288000F04FC1B0002400260027A046A146A24672
:10289000A34600BFC0E0FFF783FF7F48006838A968
:1028A00041F824007D4800682FA941F824007C48A5
:1028B000006826A941F824007A4800681DA941F85B
:1028C00024007948006814A941F82400774800687A
:1028D0000BA941F82400389805460A902F980490D7
:1028E00009902698039008901D98029007901498DC
:1028F000019006900B980090059038A850F824009D
:102900000A9DA84203DD38A850F824000A902FA899
:1029100050F824100998814203DD2FA850F82400B4
:10292000099026A850F824100898814203DD26A8B3
:1029300050F8240008901DA850F8241007988142F0
:1029400003DD1DA850F82400079014A850F82410A7
:102950000698814203DD14A850F8240006900BA8C5
:1029600050F824100598814203DD0BA850F824008C
:10297000059038A850F82400A84202DA38A850F888
:1029800024502FA850F824100498814203DA2FA86D
:1029900050F82400049026A850F82410039881428F
:1029A00003DA26A850F8240003901DA850F824103C
:1029B0000298814203DA1DA850F82400029014A85E
:1029C00050F824100198814203DA14A850F824002A
:1029D00001900BA850F824100098814203DA0BA84C
:1029E00050F82400009038A850F8240006442FA87E
:1029F00050F82400074426A850F8240080441DA85D
:102A000050F82400814414A850F8240082440BA8F4
:102A100050F824008344641C092CFFF63CAF0A984C
:102A2000301A401B072190FBF1F0214908600998FA
:102A3000391A0498081A072190FBF1F01D49086023
:102A40000798A9EB00010298081A072190FBF1F002
:102A5000194908600698AAEB00010198081A072195
:102A600090FBF1F0154908600598ABEB0001009868
:102A7000081A072190FBF1F0114908600898A8EBAB
:102A800000010398081A072190FBF1F00D49086036
:102A900041B0BDE8F08F00003481FF1F3881FF1F77
:102AA0003C81FF1F4081FF1F4481FF1F4881FF1FA2
:102AB0006481FF1F6881FF1F7081FF1F7481FF1FEA
:102AC0007881FF1F6C81FF1F2DE9F04705460C46FA
:102AD000204607F031F88146F8480168484607F07B
:102AE00077F80746284607F027F88146F44801683A
:102AF000484607F06DF88046394606F0D1FE064696
:102B00003046BDE8F0872DE9F04705460E461746EA
:102B10009846DDF820A03868A84210DCB869A842C1
:102B20000DDB002408E057F82400A84202DBE5484A
:102B3000046003E0601CC4B2072CF4DB0CE03868CE
:102B4000A84203DB0020DF49086005E0B869A8421D
:102B500002DC0620DB490860D8F80000B04211DC36
:102B6000D8F81800B0420DDB002408E058F8240023
:102B7000B04202DBD448046003E0601CC4B2072CFE
:102B8000F4DB0EE0D8F80000B04203DB0020CD49B2
:102B9000086006E0D8F81800B04202DC0620C949F7
:102BA0000860C8480068C0EBC000C84901EB80005D
:102BB000C549096850F82100C549086008460078F1
:102BC000801DC0B25AF82090484606F099FFBDE833
:102BD000F0872DE9F843FFF752FEBE480068BE4972
:102BE0000968401A00EB4001BC480068BC4A126802
:102BF000801A062202FB0010BA490968BA4A126814
:102C0000891A022202FB01004FF48B714843B1493B
:102C10000968B14A1268114401EB81014900AF4AC9
:102C20001268AF4B1B681A44062303FB0211AD4A1E
:102C30001268AD4B1B681A44022303FB021190FB80
:102C4000F1F0AA490860A3480068A3490968401A3E
:102C5000A2490968A24A1268891A0D2202FB0100E2
:102C6000A0490968A04A1268891A022202FB0100E1
:102C70004FF48671484397490968974A126811448E
:102C800001EB81014900954A1268954B1B681A4473
:102C90000D2303FB0211934A1268934B1B681A44DD
:102CA000022303FB021190FBF1F0914908608D486B
:102CB0000068462819D98C480068462815D98948E3
:102CC000006889490968401A6E2806D3864800685A
:102CD00084490968401A6E2807D2844800688549EB
:102CE000086000208449087006E081480068814936
:102CF00008600120804908707E4800687F490968A3
:102D0000401A7F49086008460068262804DC084607
:102D1000006810F1260F04DA7848006877490860E7
:102D200003E0744800687549086075480068262803
:102D300004DC7348006810F1260F04DA6F4800685D
:102D40007049086003E06B4800686E4908606D4890
:102D500000686D490968401A6C49086008460068B7
:102D60006B490968401A6B490860684800686849FF
:102D700008606948008801287DD168496848006872
:102D800006F0F2FE46D867496548006806F0ECFF99
:102D900040D8002407E0644850F82400634941F813
:102DA0002400601CC4B20D2CF5DB61494448006866
:102DB00006F00EFF414908605E4800685E490968F8
:102DC0000844B0F5FA6F0EDD3C48006806F03CFDA3
:102DD00005464FF03332594B06F076FA074605F0B8
:102DE000F1FF364908605348006840F23551884287
:102DF0000FDD5148006888420BDD002407E0504891
:102E000050F82400494941F82400601CC4B20D2C3C
:102E1000F5DB00BF4B494248006806F0A5FE05D22D
:102E20003E493F48006806F09FFF0BD346493C48A7
:102E3000006806F099FF32D23A493948006806F036
:102E400093FE2CD2002407E0404850F82400374974
:102E500041F82400601CC4B20D2CF5DB3C49184835
:102E6000006806F0B5FE154908603248006832492E
:102E70000968084400E09DE040F2145188420DDDED
:102E80000E48006806F0E0FC0546324A324B06F078
:102E90001BFA074605F096FF0849086000BF29495C
:102EA0001F48006806F060FF05D927491C480068E4
:102EB00006F05AFE7ED8002458E00000D881FF1F9B
:102EC000D481FF1F3082FF1F3482FF1FC4AA00007D
:102ED0003882FF1F6481FF1F6881FF1F6C81FF1F05
:102EE0007081FF1F7481FF1F7881FF1FAC81FF1F5E
:102EF000B081FF1FB881FF1FC881FF1FBC81FF1F6A
:102F0000C081FF1FD081FF1FDC81FF1FF481FF1FE5
:102F1000F081FF1FF881FF1F3480FF1F000048422F
:102F2000EC81FF1F000048C220A80000FC81FF1FA9
:102F300000000442CC80FF1FD080FF1F3333F33FDB
:102F400090AA000000000243000002C354A8000041
:102F50000000F041CDCCCCCCCCCCFC3FFE4850F8AE
:102F60002400FE4941F82400601CC4B20D2CF5DB9E
:102F7000FB49FC48006806F02BFEFB490860FB4853
:102F80000068FB4909680844B0F5C86F0DDDF648D4
:102F9000006806F059FC0546F64AF74B06F094F92E
:102FA000074605F00FFFF04908604FF07E50F349E7
:102FB000086000E000E000BFF148008801287DD1F2
:102FC000E749F048006806F0CFFD5DD8EE49ED48CE
:102FD000006806F0C9FE57D8002407E0EB4850F817
:102FE0002400DE4941F82400601CC4B20D2CF5DB3E
:102FF000E749DC48006806F0EBFDDB490860DB4888
:103000000068DB4909680844B0F5FA6F0DDDD64861
:10301000006806F019FC0546D64ADE4B06F054F966
:10302000074605F0CFFED0490860D0480068D04977
:103030000968084440F6980188420EDDCA480068D5
:1030400006F002FC05464FF03332D34B06F03CF954
:10305000074605F0B7FEC4490860C448006840F25E
:10306000355188420FDDC248006888420BDD0024DC
:1030700007E0CA4850F82400B84941F82400601C11
:10308000C4B20D2CF5DB00BFC549BE48006806F090
:103090006BFD05D2B249BB48006806F065FE0BD354
:1030A000C049B848006806F05FFE31D2B649B5485D
:1030B000006806F059FD2BD2002408E04CE0BA4825
:1030C00050F82400A54941F82400601CC4B20D2C1E
:1030D000F5DBB649A348006806F07AFDA24908600E
:1030E000A2480068A24909680844B0F5E16F0EDD06
:1030F0009D48006806F0A8FB05464FF06632AC4BD1
:1031000006F0E2F8074605F05DFE9749086000BF4B
:10311000A3499C48006806F027FE05D9A1499948B3
:10312000006806F021FD17D8002407E0A14850F8F8
:1031300024008A4941F82400601CC4B20D2CF5DB40
:103140009D498848006806F043FD874908604FF0B4
:103150007E508A49086000BF9848008801287CD1C9
:103160007F498848006806F0FFFC5CD8864985489E
:10317000006806F0F9FD56D8002407E0904850F8A2
:103180002400764941F82400601CC4B20D2CF5DB04
:103190008C497448006806F01BFD73490860734849
:1031A0000068734909680844B0F5FA6F0DDD6E4890
:1031B000006806F049FB0546834A844B06F084F814
:1031C000074605F0FFFD68490860684800686849DF
:1031D0000968084440F6980188420DDD624800689D
:1031E00006F032FB0546634A794B06F06DF8074658
:1031F00005F0E8FD5C4908605C48006840F2355124
:1032000088420FDD5A48006888420BDD002407E041
:10321000624850F82400514941F82400601CC4B2AF
:103220000D2CF5DB00BF5E495648006806F09CFC9B
:1032300005D24B495348006806F096FD0BD3594917
:103240005048006806F090FD30D24F494D48006864
:1032500006F08AFC2AD2002408E047E05D4850F8D6
:1032600024003E4941F82400601CC4B20D2CF5DB5B
:1032700059493C48006806F0ABFC3B4908603B48B4
:1032800000683B4909680844B0F5FA6F0DDD36481F
:10329000006806F0D9FA0546364A374B06F014F8AE
:1032A000074605F08FFD3049086000BF3C493548AE
:1032B000006806F059FD05D93A493248006806F021
:1032C00053FC13D8002407E0444850F82400234955
:1032D00041F82400601CC4B20D2CF5DB40492148A4
:1032E000006806F075FC2049086000BF3D48008872
:1032F000012879D11A492348006806F035FC74D8B2
:1033000021492048006806F02FFD6ED8002407E010
:103310002B4850F82400114941F82400601CC4B225
:103320000D2CF5DB27490F48006806F051FC0E49CB
:1033300008600E4800680E4909680844B0F5FA6F45
:1033400058DD0948006806F07FFA05461E4A1F4B03
:1033500005F0BAFF074649E088A80000FC81FF1F7E
:1033600000004842D481FF1FD881FF1FCC80FF1F7F
:10337000D080FF1F9A99999999990140F080FF1F79
:103380003680FF1FEC81FF1F000048C2BCA8000070
:10339000000018429999F13F3333F33F90AA00009F
:1033A00000000243000002C3F0A800000000284211
:1033B0006666FE3F24A90000000088423880FF1F97
:1033C00058A9000000001042CDCCCCCCCCCCF43FAE
:1033D0009999F93F8CA9000000002C42C0A9000077
:1033E000000034423A80FF1F9AE02FE005F0EAFC2B
:1033F0007F4908607F48006840F29951884221DD8A
:103400007D48006888421DDD002419E07B4850F8A3
:1034100024007B4941F824007548006806F014FA3E
:1034200005464FF03332774B05F04EFF074605F067
:10343000C9FC6F490860002073490860601CC4B271
:103440000D2CE3DB71487049086000BF704971487A
:10345000006806F089FB05D26F496E48006806F0E7
:1034600083FC0BD36D496B48006806F07DFC33D2BA
:103470006B496848006806F077FB2DD2002407E00E
:10348000684850F824005E4941F82400601CC4B22A
:103490000D2CF5DB64496548006806F099FB54493A
:1034A000086054480068544909680844B0F5FA6F48
:1034B0000DDD4F48006806F0C7F905465C4A5D4BD4
:1034C00005F002FF074605F07DFC494908604FF012
:1034D0007C504D49086000BF4D494E48006806F0D9
:1034E00043FC05D94D494B48006806F03DFB17D811
:1034F000002407E0504850F82400414941F82400D6
:10350000601CC4B20D2CF5DB4C494848006806F03D
:103510005FFB374908604FF080403B49086000BFBF
:103520003748474B474A009047480168474800687A
:10353000FFF7E9FA044606F0FFFA3C490860444800
:103540000068444908604048016843480068FFF744
:10355000BBFA3F49086000204049086040480168C4
:103560004048006806F00AFA0446002106F0FCFB19
:1035700008D23C4801682748006806F091F92549BF
:10358000086002E00020234908603648006834499A
:103590000860BDE8F8832DE9F0412E4801682C4809
:1035A000006806F01DFC07462C480068401C06F029
:1035B000C3FA8046394606F00BFB06464FF08041C1
:1035C00006F0DCF9054623480168284606F068F94C
:1035D000044622480068401C2049086008460068EC
:1035E000022801DB002008602046BDE8F0810000D1
:1035F000D881FF1FCC80FF1FD080FF1F90AA000042
:10360000FC81FF1F3333F33FF080FF1FCDCCCC3D57
:1036100000000243EC81FF1F00004842000002C38B
:10362000000048C28CA9000000003442D481FF1F72
:103630009A99999999990140C0A9000000003C42CB
:1036400004A80000E8A70000F881FF1FB881FF1F51
:10365000E881FF1FE481FF1FF481FF1FE081FF1F4E
:10366000CC81FF1F6880FF1F10B5FC4B9B6BFC4C8F
:1036700054F820402343F94CA363FA4B53F820300D
:1036800053F8213023F4E063F64C54F8204044F81A
:103690002130F44B53F8203053F821304FF4E064DC
:1036A00004EA02242343EF4C54F8204044F821302C
:1036B00010BD10B5E94B9B6BE94C54F820402343F7
:1036C000E64CA36322B1012A0FD0022A3FD125E0A4
:1036D000E44B53F8203053F8213023F00203E14C3F
:1036E00054F8204044F8213032E0DE4B53F82030CB
:1036F00053F8213043F00203DA4C54F8204044F8E8
:103700002130D84B53F8203053F8213043F00103D7
:10371000D44C54F8204044F8213019E0D14B53F8F0
:10372000203053F8213043F00203CE4C54F82040AF
:1037300044F82130CB4B53F8203053F8213023F09C
:103740000103C84C54F8204044F8213000E000BF89
:1037500000BF10BD10B5C14B9B6BC14C54F820404D
:103760002343BE4CA36362B1BE4B53F8203053F8E1
:10377000213043F02003BB4C54F8204044F8213062
:103780000BE0B84B53F8203053F8213023F02003DE
:10379000B44C54F8204044F8213010BD10B5AF4B64
:1037A0009B6BAF4C54F820402343AC4CA36362B1F5
:1037B000AC4B53F8203053F8213043F01003A94CA0
:1037C00054F8204044F821300BE0A64B53F8203049
:1037D00053F8213023F01003A24C54F8204044F851
:1037E000213010BD10B59D4B9B6B9D4C54F8204073
:1037F00023439A4CA363012A0BD19B4B53F82030EF
:103800005B6901248C402343974C54F8204063614A
:103810000AE0954B53F820305B6901248C40A343A8
:10382000914C54F82040636110BD10B50446607897
:10383000052854D2DFE800F0031323334300217935
:1038400020780022FFF735FF217920780022FFF74A
:1038500081FF217920780022FFF7C4FF40E0217921
:1038600020780222FFF725FF217920780022FFF738
:1038700071FF217920780022FFF7B4FF30E0217931
:1038800020780122FFF715FF217920780022FFF729
:1038900061FF217920780022FFF7A4FF20E0217941
:1038A00020780122FFF705FF217920780122FFF718
:1038B00051FF217920780122FFF794FF10E0217950
:1038C00020780022FFF7F5FE217920780022FFF70B
:1038D00041FF217920780122FFF784FF00E000BF3B
:1038E00000BF217920780122FFF7BEFE10BD7CB514
:1038F00004460D461646E0B28DF800008DF80160D2
:1039000001956846FFF791FFE0B27CBD10B5534BBF
:103910009B6B534C54F820402343504CA3635AB143
:10392000514B53F820305B6801248C4023434E4CAC
:1039300054F8204063600AE04B4B53F820309B68FA
:1039400001248C402343484C54F82040A36010BD10
:10395000454A52F82020526801238B401A43424BBB
:1039600053F820305A6070473F4A52F8202092683E
:1039700001238B401A433C4B53F820309A60704728
:103980000246394850F822004069C84000F0010062
:1039900038B1354850F822000068C84000F00100F6
:1039A0007047314850F822000069C84000F001001B
:1039B000F6E72D4A52F82020D26801238B401A43A3
:1039C000294B53F82030DA6070470146264850F8FA
:1039D000210000697047244A52F820201160704786
:1039E0002DE9F04104460D4616461F461B48806BE4
:1039F0001B4951F82410084318498863194850F8A6
:103A0000240050F8250020F47020164951F82410A5
:103A100041F8250067B91549085700F01F02012138
:103A20009140134A430942F8231000BFBDE8F081DA
:103A3000082E7DD2DFE806F0041E2B38495A6B7D34
:103A4000084850F8240050F8250040F4803005491B
:103A500051F8241041F825007DE00000008004406A
:103A6000B0AB00009CAB000088AB0000C4AB000012
:103A700080E100E05E4850F8240050F8250040F452
:103A800000305B4951F8241041F8250063E05848A4
:103A900050F8240050F8250040F44030544951F8C3
:103AA000241041F8250056E0514850F8240050F801
:103AB000250040F400204E4951F8241041F825001B
:103AC0004C49085700F088F845E0494850F8240070
:103AD00050F8250040F41020454951F8241041F8D1
:103AE00025004449085700F077F834E0404850F882
:103AF000240050F8250040F420203D4951F82410BE
:103B000041F825003B49085700F066F823E03848A3
:103B100050F8240050F8250040F43020344951F882
:103B2000241041F825003349085700F055F812E0F9
:103B300010E02F4850F8240050F8250040F44020B1
:103B40002B4951F8241041F825002A49085700F064
:103B500043F800E000BF00BF00BF67E7264A926B52
:103B6000264B53F820301A43234B9A6311B1244A51
:103B700042F82010704770B504461D4850F82400E4
:103B8000D0F8A0504FF0FF30194951F82410C1F877
:103B9000A0001B4850F8240020B1194850F8241008
:103BA0002846884770BD10B50020FFF7E4FF10BD20
:103BB00010B50120FFF7DFFF10BD10B50220FFF7A1
:103BC000DAFF10BD10B50320FFF7D5FF10BD10B50B
:103BD0000420FFF7D0FF10BD00F01F02012191402B
:103BE0004209920002F1E022C2F800117047000081
:103BF0009CAB0000C4AB000000800440B0AB0000F0
:103C00001483FF1F0146FE4850F82100007CC0F3DA
:103C10000210FC4A52F82000704730B503460C46AB
:103C2000F74850F82300007C00F0800050B100BF3E
:103C30001846FFF7E7FFF24951F82310097D884243
:103C4000F6D908E000BFEE4850F82300007900F0F4
:103C500080000028F7D0EA4951F82310CC71C4F352
:103C6000002555B1E64850F82300807940F0400027
:103C7000E34951F82310887109E0E14850F8230026
:103C8000807920F04000DE4951F82310887130BD62
:103C900030B504460D46A1B2DB480078FFF7BDFF02
:103CA000204630BD10B502460023D54850F822000A
:103CB000007900F0200078B1D14850F822008079D6
:103CC000C309180208800888CD4C54F82240E479D2
:103CD00020430880002010BD0120FCE718B50446F1
:103CE00000BF6946C8480078FFF7DCFF0028F8D11C
:103CF000BDF80000C0B218BD30B505460C4604E062
:103D000014F8011B2846FFF788FF20780028F7D118
:103D100030BDF0B504460D46B4FBF5F028B1B4FB58
:103D2000F5F629463046FFF7F4FFB4FBF5F005FB46
:103D30001047B6480068C15DB3480078FFF76DFFD3
:103D4000F0BD0FB470B505AD00BF09E01CB900208F
:103D500070BC5DF814FB2146AB480078FFF75DFFAF
:103D6000049810F8011B0C4604902529EED1049804
:103D700010F8014B0490642C01D06C2C03D10A2163
:103D80002868FFF7C6FF6F2C01D0782C08D16F2C64
:103D900001D1082200E0102211462868FFF7B9FF80
:103DA000732C04D1984800782968FFF7A5FF2D1DD2
:103DB000CBE72DE9F0410446012003F06DFB0746F7
:103DC000207910B12079012803D1002003F064FB91
:103DD00007462760207900EB40008D4951F820000C
:103DE0000068217901EB4101894A02EB81014968B0
:103DF0000843217901EB410152F821100860207934
:103E00007F4951F82000C07820F00C0021797C4ACD
:103E100052F82110C870A16809012068B0FBF1F0C8
:103E200085B220684001A1680901B0FBF1F02021B2
:103E300001FB1500C6B22079114651F82000007828
:103E400020F01F00217952F82110087020791146C6
:103E500051F8200040780020217952F82110487054
:103E60002079114651F82000807A20F01F00217936
:103E700052F8211088722079114651F820000078FC
:103E8000C5F304210843217952F8211008702179E3
:103E900052F821104D702079114651F82000807A97
:103EA00006F01F010843217952F821108872207B07
:103EB00020B102281AD0032848D12FE02079504998
:103EC00051F82000807820F0020021794C4A52F805
:103ED000211088702079114651F82000807820F058
:103EE0001000217952F82110887030E0207944497F
:103EF00051F82000807840F002002179404A52F8C1
:103F0000211088702079114651F82000807820F027
:103F10000100217952F82110887018E02079384981
:103F200051F82000807840F002002179344A52F89C
:103F3000211088702079114651F82000807840F0D7
:103F40000100217952F82110887000E000BF00BF05
:103F5000607B10B101287AD136E02079284951F8E8
:103F60002000807800F00200B0B1207951F82000E4
:103F7000807840F010002179214A52F82110887091
:103F80002079114651F82000807A20F02000217914
:103F900052F82110887216E02079194951F8200052
:103FA000807820F010002179154A52F8211088708D
:103FB0002079114651F82000807A20F020002179E4
:103FC00052F82110887243E020790D4951F8200001
:103FD000807800F0020008B3207951F82000807842
:103FE00040F010002179064A52F82110887020799B
:103FF000114651F82000807A40F02000217909E034
:10400000CCAB000034AC00003C82FF1F4882FF1F95
:10401000E4AB000052F82110887216E02079FE49C6
:1040200051F82000807840F010002179FA4A52F8C7
:10403000211088702079114651F82000807A20F0F4
:104040002000217952F82110887201E0FFE700BFBB
:1040500000BF2079F04951F82000407920F020007D
:104060002179ED4A52F8211048712079114651F812
:104070002000C07840F00C00217952F82110C8705F
:10408000E648007810B12079E54908700020E3493E
:104090000870BDE8F08100BFDF4951F820100979B0
:1040A00001F080010029F7D0DB4951F82010C978D0
:1040B00021F00C01D84A52F82020D17000EB4001C9
:1040C000D84A52F82110096800EB4002D54B03EBA7
:1040D00082025268914300EB400253F822201160A3
:1040E0007047CF4A1070704751B1CB4A52F8202028
:1040F000127C42F08002C84B53F820301A7409E059
:10410000C54A52F82020127C22F08002C24B53F89C
:1041100020301A74704751B1BF4A52F82020127CE7
:1041200042F00802BC4B53F820301A7409E0BA4A36
:1041300052F82020127C22F00802B74B53F82030AE
:104140001A7470470146B44850F82100007C00F012
:104150000700B54A52F820007047AF4A52F82020B5
:10416000D27822F00802AC4B53F82030DA70AA4B18
:1041700053F82030D974A84A52F82020D27842F05F
:104180000802A54B53F82030DA707047A24A52F863
:104190002020D27822F004029F4B53F82030DA70AE
:1041A0009D4B53F8203059759B4A52F82020D27805
:1041B00042F00402984B53F82030DA70704770B523
:1041C00004460E46154604EB4400964951F820007B
:1041D000006804EB4401934A02EB810149680843FB
:1041E00004EB440152F82110086036B1012E3AD098
:1041F000022E1DD0032E6FD162E055B1864850F8D3
:104200002400C07840F08000834951F82410C87021
:1042100009E0814850F82400C07820F080007E49F1
:1042200051F82410C8708149085700F05CF976E015
:1042300055B1794850F82400C07840F02000764904
:1042400051F82410C87009E0734850F82400C07871
:1042500020F02000704951F82410C87073490857A5
:1042600000F041F95BE055B16B4850F82400C0788C
:1042700040F08000684951F82410C87009E0664891
:1042800050F82400C07820F08000634951F82410D1
:10429000C87055B1604850F82400C07A40F08000E2
:1042A0005D4951F82410C87209E05B4850F82400B9
:1042B000C07A20F08000584951F82410C8722EE0CE
:1042C0005DB1554850F82400C07840F020005249B4
:1042D00051F82410C8700AE020E04F4850F824003C
:1042E000C07820F020004C4951F82410C87055B116
:1042F000494850F82400C07A40F02000464951F85F
:104300002410C87209E0444850F82400C07A20F014
:104310002000414951F82410C87200E000BF00BFDE
:1043200070BD10B500EB40023E4B53F822201268DE
:1043300000EB40033B4C04EB83035B681A4300EB48
:10434000400354F823301A6011B1394A42F8201062
:1043500010BD10B500EB4002324B53F8222012681A
:1043600000EB40032F4C04EB83035B681A4300EB24
:10437000400354F823301A6011B12E4A42F820103D
:1043800010BD73B584B00E4604AC0296207800F0E0
:1043900007008DF8040000208DF80C008DF80D004A
:1043A00000250DE02388C3F38212C3F344232B447A
:1043B000D9B22378C3F3C200FFF756F9681CC5B21F
:1043C0002068C0F38430A842ECDC6846FFF7F1FCBB
:1043D000217801F007000021FFF786FE217801F027
:1043E00007000021FFF797FE207800F0070006B0D5
:1043F00070BD1CB50446084850F82400007900F050
:10440000800038B3044850F82400C07800F08000E1
:1044100000B3074810E00000CCAB00004C82FF1F47
:104420003C82FF1FE4AB000034AC00002CAC000069
:104430002883FF1F4083FF1F50F8240020B12F481E
:1044400050F8241001A88847BDF804002C4951F801
:104450002410C8712A4850F82400007900F0200088
:10446000A8B1274850F82400C07800F0200070B1AF
:10447000234850F82400C0790190224850F82400C5
:1044800028B1204850F82410BDF8040088471C4883
:1044900050F82400007900F0080028B1184850F8BE
:1044A0002400C079009000BF1CBD10B50020FFF7AC
:1044B000A0FF10BD10B50120FFF79BFF10BD10B588
:1044C0000220FFF796FF10BD10B50320FFF791FF04
:1044D00010BD10B50420FFF78CFF10BD10B50520EE
:1044E000FFF787FF10BD00F01F0201219140420934
:1044F000920002F1E022C2F8001170472883FF1FEA
:10450000CCAB00004083FF1F72B64CF220505349E1
:10451000C8814DF62810C88162B670472DE9F04178
:104520000446012002F0B8FF074640F2D316207877
:1045300010B1012806D102E026F0080603E046F09B
:10454000080600E000BF00BFFFF7DEFFF8084FF4E9
:104550007A71B0FBF1F0616800FB01F5280C3F496E
:104560008880CD80F8084FF47A71B0FBF1F0A16833
:1045700000FB01F5280C394908814D814FF4E060BA
:10458000C88246F001060E80BDE8F0813EB50446C3
:1045900000208DF800000194600802906846FFF743
:1045A000BDFF3EBD10B50446FFF7AEFF012C06D19E
:1045B0002A48008840F004002849088005E0274880
:1045C000008820F0040025490880012C0AD116201B
:1045D000012181404209920002F1E022C2F800115B
:1045E00000BF08E01620012181401D4A430942F81E
:1045F000231000BF00BF10BD08B11A490860704702
:104600001648808A70474FF6FF70144988827047B9
:104610001249098A08041149498A0843704772B649
:104620004AF202610D4A91814BF28041918162B65A
:10463000002001E000BF401C1428FBD3704710B5D8
:104640000648408840F40040044948800548006816
:1046500010B104490868804710BD000000200540E3
:1046600080E100E05082FF1F10B504465F48C06B38
:1046700040F400005D49C863012002F00DFF5C4971
:104680000860084600685B49B0FBF1F058490860D3
:104690006068096848435849227801EB02110860B4
:1046A0005548217800EB0110806840F00101524824
:1046B000227800EB021081605048006820F0020070
:1046C0004E49086010BD7CB505460C468DF800507B
:1046D00001946846FFF7C8FF7CBD30B50B464349DF
:1046E000C96B41F40001414CE1636AB1444C21566D
:1046F00001F01F050124AC404D09AD0005F1E02596
:10470000C5F8004100BF00BF52B13B4901EB0011A9
:10471000896841F00204384901EB00118C6009E01E
:10472000354901EB0011896821F00204324901EB9F
:1047300000118C604AB9304901EB0011C96841F0A1
:1047400001042D4901EB0011CC6030BD2A4901EB79
:104750000011896821F00102274901EB00118A60EC
:10476000254901EB0011896841F00102224901EB62
:1047700000118A60704701461F4800EB0110406835
:1047800070471A4AD26B42F40002184BDA6311B137
:104790001C4A42F82010704710B50446164800EB3A
:1047A0000410C06840F00101134800EB0410C16020
:1047B000144850F8240018B1124951F824008047D9
:1047C00010BD10B50020FFF7E7FF10BD10B50120A8
:1047D000FFF7E2FF10BD10B50220FFF7DDFF10BDAF
:1047E00010B50320FFF7D8FF10BD00000080044083
:1047F0005482FF1F40420F000071034000700340CD
:1048000050AC00005883FF1F0246F64850F82200C3
:1048100050F8210000F0800008B10020704701200E
:10482000FCE730B50146EF4850F82100406A40F0FF
:104830004000EC4D55F821506862EA4850F82100DC
:10484000406A40F08000E74D55F82150686200242E
:1048500000E0641CE4488442FBD3E24850F82100A5
:10486000406A00F0400008B1012030BD0022DD4860
:1048700050F82100C06C0244DA4850F82100806CE6
:104880000244D84850F82100406C0244D54850F802
:104890002100006C0244D34850F82100C06B024450
:1048A000D04850F82100806B02444FF4004040EAA9
:1048B00052020023CB4850F82100C06E0344C9487F
:1048C00050F82100806E0344C64850F82100406E25
:1048D0000344C44850F82100006E0344C14850F816
:1048E0002100C06D0344BF4850F82100806D03448F
:1048F0004FF4004040EA5303BA4850F82100406AA0
:1049000020F08000B74D55F821506862B54850F846
:104910002100C262B34850F8210003630020A4E7DD
:1049200010B50446206800EB4000B04951F8200063
:104930000068216801EB4101AC4A02EB8101496842
:104940000843216801EB410152F821100860A54994
:10495000206851F82000806820F06000A14A21689A
:1049600052F8211088601146206851F820008068B4
:104970006179602202EA411108439A4A216852F89B
:10498000211088601146206851F82000806840F0AE
:104990008000216852F8211088601146206851F883
:1049A0002000006A20F00300216852F821100862FC
:1049B0001146206851F82000006AA17A01F0030135
:1049C0000843216852F8211008621146206851F806
:1049D0002000806820F00C00216852F821108860C7
:1049E0001146206851F820008068A1790C2202EA63
:1049F000810108437B4A216852F8211088602079A0
:104A000001280BD11146206851F82000006A40F0BF
:104A10004000216852F8211008620BE071492068BB
:104A200051F82000006A00F040006E4A216852F8F8
:104A300021100862207A60B96A49206851F8200084
:104A4000406A40F00800674A216852F82110486225
:104A50000BE06449206851F82000406A20F008000B
:104A6000604A216852F821104862607A052878D29D
:104A7000DFE800F00310315478005A49206851F8FB
:104A80002000406A20F00400564A216852F82110A4
:104A900048628BE05349206851F82000406A40F09A
:104AA0000400504A216852F82110486211462068DB
:104AB00051F82000406A20F00300216852F82110CC
:104AC00048621146206851F82000406A216852F877
:104AD000211048626AE04349206851F82000406A8A
:104AE00040F004003F4A216852F821104862114604
:104AF000206851F82000406A20F00300216852F835
:104B0000211048621146206851F82000406A40F0A8
:104B10000100216852F82110486247E031492068BD
:104B200051F82000406A40F004002E4A216852F8F3
:104B3000211048621146206851F82000406A20F098
:104B40000300216852F8211048621146206851F88C
:104B50002000406A40F00200216852F821104862AB
:104B600024E022E01F49206851F82000406A40F00C
:104B700004001C4A216852F821104862114620683E
:104B800051F82000406A20F00300216852F82110FB
:104B900048621146206851F82000406A40F0030046
:104BA000216852F82110486200E000BF00BF206871
:104BB000FFF737FE10BD51B10A4A52F82020126AA1
:104BC00042F04002074B53F820301A6209E0054AD0
:104BD00052F82020126A02F04002024B53F82030B3
:104BE0001A62704754AC0000A08601005CAC000063
:104BF00049B9844A52F82020D26822F01002814B31
:104C000053F82030DA60012909D17E4A52F8202079
:104C1000D26842F010027B4B53F82030DA607047C4
:104C200073B584B00E4604AC207800F00700019004
:104C300003208DF809008DF80A6000208DF8080027
:104C40008DF80B0001208DF80C0000208DF80D0070
:104C50008DF80E00002518E02388C3F38212C3F3F9
:104C600044232B44D9B22378C3F3C200FEF7FCFCE3
:104C70002288C2F344222A44D1B22278C2F3C2006D
:104C80000022FEF716FD681CC5B22068C0F3843010
:104C9000A842E1DC01A8FFF743FE2268110E22784A
:104CA00002F00700FFF7A4FF207800F0070006B02D
:104CB00070BD10B5534B53F8203053F8223023F019
:104CC0001F03504C54F8204044F822304D4B53F809
:104CD000203053F8223001F01F042343494C54F88C
:104CE000204044F8223010BD0246464850F82200C9
:104CF000103050F82100704771B56C46207800F0F4
:104D000007052068C0F3C446002231462846FFF755
:104D1000D0FF00BF3B4850F82500006800F080003D
:104D20000028F7D000212846FFF7DEFF78BD70B5D8
:104D3000134633B1012B1CD0022B25D0032B48D1B5
:104D40003CE0314C225602F01F050124AC402F4DAF
:104D5000560945F8264000BF2A4A52F8202052F84A
:104D6000212022F04002274C54F8204044F8212012
:104D700030E0244A52F82020126A22F00402214C2A
:104D800054F82040226225E01E4A52F8202052F8B2
:104D9000212042F040021B4C54F8204044F82120CE
:104DA000194C225602F01F050124AC405509AD00F4
:104DB00005F1E025C5F8004100BF0BE0114A52F8AB
:104DC0002020126A42F004020E4C54F82040226265
:104DD00000E000BF00BF70BD11B10D4A42F82010C5
:104DE000704710B50A48006810B109490868804743
:104DF00010BD10B50648406810B1054948688047A5
:104E000010BD000054AC000074AC000080E100E074
:104E10005882FF1F30B500EB4003FE4C54F823309E
:104E20001B6800EB4004FB4D05EB840464682343DE
:104E300000EB400455F8244023600023F64C54F85E
:104E400020402360F44B53F820305B6D43F00403A3
:104E5000F14C54F8204063650023EF4C54F8204097
:104E60006360ED4C54F82040E364EB4B53F8203082
:104E700099604FF0FF33E84C54F82040C4F8983064
:104E800030BD014609B1012901D100207047022936
:104E900001D0032901D10120F8E7042901D0052917
:104EA00001D10220F2E70320F0E72DE9F0410446AA
:104EB0000E4615461F464FF00008062D34D2DFE897
:104EC00005F0030B131B232B3046FFF7DAFFC1005D
:104ED000012000FA01F828E03046FFF7D2FFC100B8
:104EE000022000FA01F820E03046FFF7CAFFC100B7
:104EF000042000FA01F818E03046FFF7C2FFC100B5
:104F0000102000FA01F810E03046FFF7BAFFC100A8
:104F1000202000FA01F808E03046FFF7B2FFC10098
:104F2000402000FA01F800E000BF00BF012F0AD1C5
:104F3000B94850F82400406E40EA0800B64951F8DC
:104F40002410486609E0B44850F82400406E20EA76
:104F50000800B14951F824104866BDE8F08110B549
:104F600012B1012A3AD11CE0AB4B53F820300C337C
:104F700053F8313023F00404A74B53F820300C339E
:104F800043F83140A44B53F820300C3353F8313000
:104F900043F00804A04B53F820300C3343F8314061
:104FA0001DE09D4B53F820300C3353F8313043F063
:104FB0000404994B53F820300C3343F83140964B9E
:104FC00053F820300C3353F8313023F00804924B5F
:104FD00053F820300C3343F8314000E000BF00BFED
:104FE00010BD70B504460D461646062E7ED2DFE88B
:104FF00006F0035BF7F8A2F5874850F82400406DEF
:1050000020F00100844951F824104865824850F886
:105010002400D0F8800020F001007F4951F82410CE
:10502000C1F880007C4850F82400006820F020007F
:10503000794951F824100860774850F824000C3062
:1050400050F8350040F03001734850F824000C301F
:1050500040F83510002229462046FFF780FF002344
:105060001A4629462046FFF720FF00230122294641
:105070002046FFF71AFF0023022229462046FFF7A9
:1050800014FF0023032229462046FFF70EFF0023CA
:10509000042229462046FFF708FF0023052229465F
:1050A0002046FFF702FFD4E15B4850F82400406D32
:1050B00020F00100584951F824104865564850F82E
:1050C0002400D0F8800020F00100534951F824104A
:1050D000C1F88000504850F82400006840F02000DB
:1050E0004D4951F824100860002300E0B0E11A4651
:1050F00029462046FFF7D9FE0023012229462046F3
:10510000FFF7D3FE0023022229462046FFF7CDFEFB
:105110000023032229462046FFF7C7FE002304226E
:1051200029462046FFF7C1FE0023052229462046D6
:10513000FFF7BBFE8DE1384850F82400D0F880001E
:1051400020F00100344951F82410C1F880003248A1
:1051500050F82400406D20F001002F4951F8241030
:1051600048652D4850F82400006820F020002A49A6
:1051700051F824100860284850F824000C3050F8EA
:10518000350020F03001244850F824000C3040F85D
:10519000351000231A4629462046FFF786FE0023D5
:1051A000012229462046FFF780FE002302222946DD
:1051B0002046FFF77AFE0023032229462046FFF708
:1051C00074FE0023042229462046FFF76EFE0023CA
:1051D000052229462046FFF768FE3AE1E9E000E0B3
:1051E00076E00D4850F82400D0F8800020F001004F
:1051F000094951F82410C1F88000074850F82400EC
:10520000006820F02000044951F82410086002488A
:1052100004E0000090AC000078AC000050F82400DE
:10522000406D40F00400FE4951F824104865FC48E8
:1052300050F82400406D40F00100F94951F8241065
:1052400048650123002229462046FFF72EFE012350
:105250001A4629462046FFF728FE00230222294647
:105260002046FFF722FE0023032229462046FFF7AF
:105270001CFE0123042229462046FFF716FE0023C8
:10528000052229462046FFF710FEE54850F8240085
:105290000C3050F8350040F03001E14850F824005F
:1052A0000C3040F83510002229462046FFF757FE03
:1052B0000320DB4951F824108865D94850F82400B0
:1052C000806D40F08000D64951F824108865C0E018
:1052D000D34850F82400D0F8800020F00100D049D5
:1052E00051F82410C1F88000CD4850F8240000681F
:1052F00020F02000CA4951F824100860C84850F82E
:105300002400406D40F00400C54951F82410486560
:10531000C34850F82400406D40F00100C04951F8E6
:10532000241048650123002229462046FFF7BDFDD1
:105330000023012229462046FFF7B7FD0023022261
:1053400029462046FFF7B1FD0023032229462046C7
:10535000FFF7ABFD0123042229462046FFF7A5FDF8
:105360000023052229462046FFF79FFDAC4850F850
:1053700024000C3050F8350040F03001A84850F8B7
:1053800024000C3040F83510002229462046FFF753
:10539000E6FD0320A24951F824108865A04850F882
:1053A0002400806D40F080009D4951F824108865EC
:1053B0004FE09B4850F82400D0F8800040F00100F6
:1053C000974951F82410C1F88000954850F82400FE
:1053D000006820F02000924951F82410086090489D
:1053E00050F82400406D40F004008D4951F824101D
:1053F00048658B4850F82400406D40F00100884912
:1054000051F8241048650123002229462046FFF761
:105410004CFD0023012229462046FFF746FD0023CC
:10542000022229462046FFF740FD00230322294699
:105430002046FFF73AFD0023042229462046FFF7C5
:1054400034FD0023052229462046FFF72EFD00E00B
:1054500000BF00BF70BDF7B50E4617466C462178F9
:1054600001F0070004224FF6FF71FFF7D3FC21780B
:1054700001F0070005220021FFF7B3FD16B1012E50
:1054800048D123E0207800F00700654951F820005A
:10549000D0F8800020F02000217801F00701604A58
:1054A00052F82110C1F88000207800F00700114662
:1054B00051F82000D0F8800020F01000217801F091
:1054C000070152F82110C1F8800024E0207800F094
:1054D0000700534951F82000D0F8800040F0200028
:1054E000217801F007014E4A52F82110C1F88000DE
:1054F000207800F00700114651F82000D0F8800015
:1055000040F01000217801F0070152F82110C1F895
:10551000800000E000BF00BF17B1012F26D112E0CC
:10552000207800F007003E4951F82000D0F88000B4
:1055300020F00800217801F00701394A52F82110C3
:10554000C1F8800013E0207800F00700344951F8DA
:105550002000D0F8800040F00800217801F0070119
:105560002F4A52F82110C1F8800000E000BF00BFB0
:10557000002523E02388C3F38212C3F344232B4482
:10558000D9B22378C3F3C200FEF76EF82288C2F3C3
:1055900044222A44D1B22278C2F3C2000122FEF78B
:1055A00088F82288C2F344222A44D1B22278C2F376
:1055B000C2000122FEF7CEF8681CC5B22068C0F315
:1055C0008430A842D6DC207800F00700FEBD144BE2
:1055D00053F82030D3F88030C3F380031370104B9E
:1055E00053F820305B689BB20B60704700210C4A77
:1055F00052F820205160704770B51346084C54F89B
:105600002040A4685C4342F21075B4FBF5F2044CF0
:1056100054F82040646E04F0013494B30C4601E069
:1056200078AC000001EBD4756D10A1EB450585B198
:105630000026F64C54F820400C344D1E04EBC504F3
:105640006660F24C54F820400C3404EBC1046260F4
:105650000FE00025ED4C54F820400C3404EBC1045D
:105660006560EA4C54F820400C344D1C04EBC50432
:1056700062604FF0FF34E54D55F82050C5F8984072
:1056800007E0FFE7E14C54F820400C3404EBC10480
:10569000626070BD2DE9F74F82B08A4691460027BF
:1056A00002AC00250DE02388C3F38212C3F3442328
:1056B0002B44D9B22378C3F3C200FDF7D5FF681C91
:1056C000C5B22068C0F38430A842ECDC4FF6FF700E
:1056D0000190012001F0E0FE8046B8FBF9F04FF6A2
:1056E000FF71B0FBF1F6B8FBF9F0B0FBF6F0B0F5E6
:1056F000803F00D3761C00251CE00120A840301A12
:1057000003D50120A840801B02E00120A840301AE8
:10571000019988420CD22F460120A840301A03D5A7
:105720000120A840801B02E00120A840301A01900F
:10573000681CC5B2072DE0DB0120B840B04201DA99
:10574000781CC7B2072F00DD07270120B840B8FB3F
:10575000F0F0B0FBF9F0A0F1010B217801F00700A7
:105760003A465946FFF756FBBAF1000F06D0BAF198
:10577000010F0DD0BAF1020F1ED113E02268C2F35F
:10578000C441227802F007000022FFF72AFC14E04F
:105790002268C2F3C441227802F007000222FFF718
:1057A00020FC0AE02268C2F3C441227802F007001C
:1057B0000322FFF716FC00E000BF00BF2268C2F31F
:1057C000C441227802F0070041F28832FFF714FF4B
:1057D000207800F007008D4951F82000006820F083
:1057E0001800217801F00701884A52F8211008605A
:1057F000207800F00700114651F82000006840F0C2
:105800000800217801F0070152F821100860207883
:1058100000F00700114651F82000006820F0070052
:10582000217801F0070152F821100860207800F07B
:105830000700114651F82000006807F007010843EF
:10584000217801F0070152F821100860207800F05B
:10585000070005B0BDE8F08F73B50E466C46002515
:105860000CE02388C3F38212C3F344232B44D9B240
:105870002378C3F3C200FDF7F7FE6D1C2068C0F368
:105880008430A842EDD8217801F0070032464FF667
:10589000FF71FFF7BFFA207800F007005B4951F86D
:1058A0002000006820F01800217801F00701574A15
:1058B00052F821100860207800F00700114651F8D6
:1058C0002000006840F00800217801F0070152F83C
:1058D00021100860207800F00700114651F82000E0
:1058E000006820F00700217801F0070152F821102C
:1058F0000860207800F00700114651F82000006889
:1059000040F00200217801F0070152F821100860F0
:105910002268C2F3C441227802F007000422FFF794
:1059200060FB7CBD10B5394B53F820300C3353F875
:10593000313023F00C04354B53F820300C3343F84E
:10594000314022B1012A1FD0022A49D139E02F4B20
:1059500053F820300C3353F8313023F008042B4B2C
:1059600053F820300C3343F83140284B53F82030A3
:105970000C3353F8313043F00404244B53F82030F7
:105980000C3343F831402CE0204B53F820300C33DB
:1059900053F8313043F008041C4B53F820300C33DB
:1059A00043F83140194B53F820300C3353F8313061
:1059B00023F00404154B53F820300C3343F83140E6
:1059C0000FE0124B53F820300C3353F8313043F0D2
:1059D0000C040E4B53F820300C3343F8314000E0F8
:1059E00000BF00BF10BD0246084850F822000C302E
:1059F00000EBC10040687047044A52F82020516013
:105A0000704711B1024A42F82010704778AC00008C
:105A10006883FF1F30B511297ED2DFE801F009202D
:105A20002122232425262748494A4B4C4D4E4F001E
:105A300052B19E4B53F820301B6843F040039B4CFF
:105A400054F82040236009E0984B53F820301B683D
:105A500023F04003954C54F8204023607EE000BFC3
:105A600000BF00BF00BF00BF00BF00BF7AB18F4BB7
:105A700053F820300C334C1E53F8343043F04005BB
:105A80008A4B53F820300C3343F834500EE0874BE8
:105A900053F820300C334C1E53F8343023F04005BB
:105AA000824B53F820300C3343F8345056E000BF9B
:105AB00000BF00BF00BF00BF00BF00BF92B17B4B63
:105AC00053F820400C34A1F1090354F8333043F06B
:105AD0004005764B53F820400C34A1F1090344F8FB
:105AE000335011E0714B53F820400C34A1F10903FD
:105AF00054F8333023F040056C4B53F820400C34FD
:105B0000A1F1090344F83350A2B1684B53F8204087
:105B10000C34A1F1090300E01FE054F8333043F0E6
:105B20000105624B53F820400C34A1F1090344F8FD
:105B3000335011E05D4B53F820400C34A1F10903C0
:105B400054F8333023F00105584B53F820400C34FF
:105B5000A1F1090344F8335000E000BF00BF544CEA
:105B6000235603F01F050124AC405D09AD0005F18B
:105B7000E025C5F8004100BF30BD10B54D480068B4
:105B800010B14C490868804748480068006800F038
:105B9000C00038B145480068006820F080004349E3
:105BA00009680860002415E0404800680C3050F88F
:105BB000340000F0C00060B13C4800680C3050F880
:105BC000340020F08001394800680C3040F834106F
:105BD00004E0641C38480068A042E5D800BF10BD4E
:105BE00010B53448406810B13249486880472F48A2
:105BF0004068006800F0C00038B12C484068006878
:105C000040F08000294949680860002415E02748D1
:105C100040680C3050F8340000F0C00060B12348F8
:105C200040680C3050F8340020F080011F48406874
:105C30000C3040F8341004E0641C1F484068A04257
:105C4000E5D800BF10BD10B51A48806810B11949D9
:105C50008868804715488068006800F0C00038B147
:105C600012488068006820F0800010498968086048
:105C7000002415E00D4880680C3050F8340000F026
:105C8000C00060B1094880680C3050F8340020F042
:105C90008001064880680C3040F8341004E0641C31
:105CA00005488068A042E5D800BF10BD78AC000070
:105CB000B4AC00006883FF1F84AC00002DE9FF4FE7
:105CC00082B004468C46DDF810B0FC4850F8240041
:105CD000006800F0004018B9002006B0BDE8F08F61
:105CE0004FF0FF324FF000084FF000090120019003
