:020000040000FA
:10000000F011FF1F89060000E9430000930600007D
:100010009506000097060000990600000000000009
:100020000000000000000000000000009B0600002F
:100030009D060000000000009F060000A1060000D1
:10004000933800009D380000A7380000B138000048
:10005000BB380000E1380000EB380000F538000044
:10006000FF38000009390000133900001D39000075
:1000700027390000313900003B39000045390000C4
:10008000A3060000A3060000A3060000A3060000CC
:10009000A3060000A3060000D9160000A306000076
:1000A000A3060000A30600007B320000853200009A
:1000B000A3060000A3060000A30600003F150000F1
:1000C000A306000049150000A30600005315000018
:1000D000A30600005D150000A30600007B1E0000C3
:1000E000A3060000A3060000192C00007F2C0000CE
:1000F000E52C0000A3060000BB3C0000A3060000A6
:100100005D18000067180000711800007B180000DF
:1001100017540000A3060000A3060000A306000079
:10012000F5500000A3060000B13400003F0C0000B1
:10013000490C0000530C00005D0C0000670C00002F
:10014000A30600008F32000067150000A306000020
:1001500071150000A3060000A3060000A30600001E
:10016000FF5000008B1E0000A30600004D4B000056
:10017000A3060000A3060000A3060000A3060000DB
:10018000A3060000A3060000A306000049420000E9
:1001900065420000A3060000A3060000A3060000BD
:1001A000A3060000A3060000A3060000A3060000AB
:1001B000A3060000A3060000A3060000A30600009B
:1001C000A3060000A3060000A3060000A30600008B
:1001D000A3060000A3060000A3060000A30600007B
:10040000FFFFFFFFFFFFFFFFFFFFFFFFFEFFFFFFFD
:1004100000F002F800F03AF80AA090E8000C8244DC
:100420008344AAF10107DA4501D100F02FF8AFF2B9
:10043000090EBAE80F0013F0010F18BFFB1A43F0C2
:1004400001031847BC530000DC530000103A24BFDE
:1004500078C878C1FAD8520724BF30C830C144BF29
:1004600004680C607047000000230024002500266B
:10047000103A28BF78C1FBD8520728BF30C148BF07
:100480000B6070471FB51FBD10B510BD05F058F8C3
:100490001146FFF7F7FF00F017F905F076F803B4FF
:1004A000FFF7F2FF03BC05F07BF80000C0BA70470D
:1004B0004CF220506C49C8814DF62810C8814FF489
:1004C000E97008804FF08A706849486408464068BF
:1004D00020F4403048606648006840F44020644999
:1004E0000860062063490870002048700846C078FC
:1004F00040F0E000C87080205F4908705D48007BD4
:1005000000F0FC005B49087300200871487100BFCF
:100510005848807910F0100FFAD000BF5548807904
:1005200010F00C0FFAD17047524A127812F0C00F37
:1005300066D1504A527912F0400F51D14D4A12788B
:1005400012F0040F18D14B4A127B12F0030F01D1A5
:100550004A4801E04FF40040464A1278C2F3C20311
:1005600001229A40D1B2B0FBF1F0424A527812F027
:10057000300F03D0400901E04FF400403D4AD278EB
:1005800002F0E00212F01F0F28D15211082A25D2E2
:10059000DFE802F004080C1014181C2000EB8002A5
:1005A000D0011CE000EB8002100218E0C0EB00124A
:1005B000D00114E000EB8002500210E04FF43772DB
:1005C00050430CE04FF4B762504308E040F6950208
:1005D000504304E040F67132504300E000BF38E081
:1005E000244A127902F01F02511C244AB2FBF1F096
:1005F000204A527902F01F0202F11801484328E014
:100600001C4A127802F0C002402A11D1194A5278CD
:1006100012F0010F02D14FF400401AE0154A127A8D
:10062000C2F3420301229A40154BB3FBF2F010E0F3
:10063000104A127802F0C002802A09D10D4A127BBA
:1006400012F0030F01D10D4803E04FF4004000E029
:100650007047064A526C012303EB1272B0FBF2F2B0
:10066000084B1A6000BFF3E70020054000800440FB
:1006700000700440004006400050064080F0FA023E
:1006800000093D000000FF1F094880470948004756
:10069000FEE7FEE7FEE7FEE7FEE7FEE7FEE7FEE732
:1006A000FEE7FEE704480549054A064B704700008F
:1006B000B104000011040000F007FF1FF011FF1F3C
:1006C000F009FF1FF009FF1F03F07EFE0422062140
:1006D000104600F058F900220621042000F062F9CB
:1006E0000BE00648806908B9012000E000200349BA
:1006F00088614FF4FA7003F06BFEF2E70020FE43CE
:1007000010B5FC4B9B6BFC4C54F820402343F94C38
:10071000A363FA4B53F8203053F8213023F4E063FD
:10072000F64C54F8204044F82130F44B53F8203074
:1007300053F821304FF4E06404EA02242343EF4CE1
:1007400054F8204044F8213010BD10B5E94B9B6BA4
:10075000E94C54F820402343E64CA36322B1012A1C
:100760000FD0022A3FD125E0E44B53F8203053F854
:10077000213023F00203E14C54F8204044F82130AA
:1007800032E0DE4B53F8203053F8213043F00203BF
:10079000DA4C54F8204044F82130D84B53F820303C
:1007A00053F8213043F00103D44C54F8204044F86E
:1007B000213019E0D14B53F8203053F8213043F069
:1007C0000203CE4C54F8204044F82130CB4B53F870
:1007D000203053F8213023F00103C84C54F8204056
:1007E00044F8213000E000BF00BF10BD10B5C14B80
:1007F0009B6BC14C54F820402343BE4CA36362B1B1
:10080000BE4B53F8203053F8213043F02003BB4C4B
:1008100054F8204044F821300BE0B84B53F8203016
:1008200053F8213023F02003B44C54F8204044F80E
:10083000213010BD10B5AF4B9B6BAF4C54F820402E
:100840002343AC4CA36362B1AC4B53F8203053F854
:10085000213043F01003A94C54F8204044F82130D3
:100860000BE0A64B53F8203053F8213023F010034F
:10087000A24C54F8204044F8213010BD10B59D4BD7
:100880009B6B9D4C54F8204023439A4CA363012A50
:100890000BD19B4B53F820305B6901248C402343E0
:1008A000974C54F8204063610AE0954B53F8203090
:1008B0005B6901248C40A343914C54F82040636150
:1008C00010BD10B504466078052854D2DFE800F06A
:1008D000031323334300217920780022FFF735FFEB
:1008E000217920780022FFF781FF217920780022EA
:1008F000FFF7C4FF40E0217920780222FFF725FFAF
:10090000217920780022FFF771FF217920780022D9
:10091000FFF7B4FF30E0217920780122FFF715FFBF
:10092000217920780022FFF761FF217920780022C9
:10093000FFF7A4FF20E0217920780122FFF705FFCF
:10094000217920780122FFF751FF217920780122B7
:10095000FFF794FF10E0217920780022FFF7F5FEE1
:10096000217920780022FFF741FF217920780122A8
:10097000FFF784FF00E000BF00BF2179207801224B
:10098000FFF7BEFE10BD7CB504460D461646E0B22C
:100990008DF800008DF8016001956846FFF791FF22
:1009A000E0B27CBD10B5534B9B6B534C54F82040C8
:1009B0002343504CA3635AB1514B53F820305B682A
:1009C00001248C4023434E4C54F8204063600AE0DD
:1009D0004B4B53F820309B6801248C402343484CF8
:1009E00054F82040A36010BD454A52F820205268B8
:1009F00001238B401A43424B53F820305A60704712
:100A00003F4A52F82020926801238B401A433C4B06
:100A100053F820309A6070470246394850F8220057
:100A20004069C84010F0010F07D0354850F8220047
:100A30000068C84000F001007047314850F82200BB
:100A40000069C84000F00100F6E72D4A52F8202066
:100A5000D26801238B401A43294B53F82030DA60C7
:100A600070470146264850F8210000697047244A23
:100A700052F82020116070472DE9F04104460D46E0
:100A800016461F461B48806B1B4951F8241008432B
:100A900018498863194850F8240050F8250020F4BC
:100AA0007020164951F8241041F8250067B91549FE
:100AB000085700F01F0201219140134A430942F8F0
:100AC000231000BFBDE8F081082E7DD2DFE806F0DC
:100AD000041E2B38495A6B7D084850F8240050F802
:100AE000250040F48030054951F8241041F82500D4
:100AF0007DE0000000800440D8550000C45500008F
:100B0000B0550000EC55000080E100E05E4850F870
:100B1000240050F8250040F400305B4951F82410BF
:100B200041F8250063E0584850F8240050F82500AB
:100B300040F44030544951F8241041F8250056E063
:100B4000514850F8240050F8250040F400204E4948
:100B500051F8241041F825004C49085700F088F856
:100B600045E0494850F8240050F8250040F4102092
:100B7000454951F8241041F825004449085700F030
:100B800077F834E0404850F8240050F8250040F44D
:100B900020203D4951F8241041F825003B490857D1
:100BA00000F066F823E0384850F8240050F825009B
:100BB00040F43020344951F8241041F825003349DD
:100BC000085700F055F812E010E02F4850F82400C4
:100BD00050F8250040F440202B4951F8241041F8EA
:100BE00025002A49085700F043F800E000BF00BF85
:100BF00000BF67E7264A926B264B53F820301A4312
:100C0000234B9A6311B1244A42F82010704770B503
:100C100004461D4850F82400D0F8A0504FF0FF3093
:100C2000194951F82410C1F8A0001B4850F82400BD
:100C300020B1194850F824102846884770BD10B5D7
:100C40000020FFF7E4FF10BD10B50120FFF7DFFF24
:100C500010BD10B50220FFF7DAFF10BD10B503205C
:100C6000FFF7D5FF10BD10B50420FFF7D0FF10BD72
:100C700000F01F020121914042094FF0E02303EBF5
:100C80008202C2F800117047C4550000EC55000004
:100C900000800440D85500008000FF1F0146FE4838
:100CA00050F82100007CC0F30210FC4A52F82000EA
:100CB000704730B503460C46F74850F82300007CD7
:100CC00010F0800F0AD000BF1846FFF7E7FFF24987
:100CD00051F82310097D8842F6D907E000BFEE489D
:100CE00050F82300007910F0800FF8D0EA4951F84D
:100CF0002310CC71C4F3002555B1E74850F8230008
:100D0000807940F04000E44951F82310887109E0EF
:100D1000E14850F82300807920F04000DE4951F886
:100D20002310887130BD30B504460D46A1B2DC48B1
:100D30000078FFF7BEFF204630BD10B50246002305
:100D4000D54850F82200007910F0200F0FD0D2487B
:100D500050F822008079C309180208800888CE4C18
:100D600054F82240E47920430880002010BD01207F
:100D7000FCE718B5044600BF6946C9480078FFF78C
:100D8000DCFF0028F8D1BDF80000C0B218BD30B5B6
:100D900005460C4604E014F8011B2846FFF789FFBE
:100DA00020780028F7D130BDF0B504460D46B4FBDD
:100DB000F5F028B1B4FBF5F629463046FFF7F4FF0D
:100DC000B4FBF5F005FB1047B6480068C15DB448B8
:100DD0000078FFF76EFFF0BD0FB470B505AD00BF32
:100DE00009E01CB9002070BC5DF814FB2146AC483A
:100DF0000078FFF75EFF049810F8011B0C46049082
:100E00002529EED1049810F8014B0490642C01D0F0
:100E10006C2C03D10A212868FFF7C6FF6F2C01D084
:100E2000782C08D16F2C01D1082200E01022114645
:100E30002868FFF7B9FF732C04D199480078296816
:100E4000FFF7A5FF2D1DCBE72DE9F041044601205A
:100E500003F02AFA0746207910B12079012803D13E
:100E6000002003F021FA07462760207900EB4000BC
:100E70008D4951F820000068217901EB41018A4A2F
:100E800002EB810149680843217901EB410152F8E5
:100E9000211008602079804951F82000C07820F0A6
:100EA0000C0021797C4A52F82110C870A168090110
:100EB0002068B0FBF1F085B220684001A16809010B
:100EC000B0FBF1F0202101FB1500C6B220791146DC
:100ED00051F82000007820F01F00217952F82110ED
:100EE00008702079114651F82000407800202179BF
:100EF00052F8211048702079114651F82000807A6C
:100F000020F01F00217952F82110887220791146B3
:100F100051F820000078C5F304210843217952F8E4
:100F200021100870217952F821104D702079114656
:100F300051F82000807A06F01F010843217952F809
:100F400021108872207B20B102281AD0032848D1B2
:100F50002FE02079504951F82000807820F00200DD
:100F600021794D4A52F8211088702079114651F8A4
:100F70002000807820F01000217952F8211088702C
:100F800030E02079444951F82000807840F0020098
:100F90002179414A52F8211088702079114651F880
:100FA0002000807820F00100217952F8211088700B
:100FB00018E02079384951F82000807840F002008C
:100FC0002179354A52F8211088702079114651F85C
:100FD0002000807840F00100217952F821108870BB
:100FE00000E000BF00BF607B10B101287BD136E07C
:100FF0002079294951F82000807810F0020F16D08E
:10100000207951F82000807840F010002179224AA0
:1010100052F8211088702079114651F82000807A0A
:1010200020F02000217952F82110887216E02079F2
:10103000194951F82000807820F010002179164AD3
:1010400052F8211088702079114651F82000807ADA
:1010500020F02000217952F82110887244E0207994
:101060000D4951F82000807810F0020F22D020792D
:1010700051F82000807840F010002179064A52F89B
:10108000211088702079114651F82000807A40F0B4
:10109000200021790AE00000F45500005C560000B1
:1010A0000900FF1F0400FF1F0C56000052F821101A
:1010B000887216E02079FE4951F82000807840F0CF
:1010C00010002179FA4A52F82110887020791146CF
:1010D00051F82000807A20F02000217952F8211068
:1010E000887201E0FFE700BF00BF2079F04951F8A6
:1010F0002000407920F020002179ED4A52F821109B
:1011000048712079114651F82000C07840F00C0059
:10111000217952F82110C870E648007810B1207982
:10112000E54908700020E3490870BDE8F08100BF80
:10113000DF4951F82010097911F0800FF8D0DC490F
:1011400051F82010C97821F00C01D94A52F820201A
:10115000D17000EB4001D94A52F82110096800EB28
:101160004002D64B03EB82025268914300EB4002EF
:1011700053F8222011607047CF4A1070704751B168
:10118000CB4A52F82020127C42F08002C84B53F820
:1011900020301A7409E0C64A52F82020127C22F04E
:1011A0008002C34B53F820301A74704751B1C04AC3
:1011B00052F82020127C42F00802BD4B53F8203038
:1011C0001A7409E0BA4A52F82020127C22F0080270
:1011D000B74B53F820301A7470470146B44850F8A2
:1011E0002100007C00F00700B54A52F8200070474B
:1011F000AF4A52F82020D27822F00802AC4B53F8C4
:101200002030DA70AA4B53F82030D974A84A52F82B
:101210002020D27842F00802A54B53F82030DA7033
:101220007047A34A52F82020D27822F00402A04B43
:1012300053F82030DA709E4B53F8203059759C4A91
:1012400052F82020D27842F00402994B53F8203013
:10125000DA70704770B504460E46154604EB44003C
:10126000964951F82000006804EB4401934A02EBD0
:1012700081014968084304EB440152F821100860D9
:1012800036B1012E3AD0022E1DD0032E6FD162E06E
:1012900055B1874850F82400C07840F08000844958
:1012A00051F82410C87009E0814850F82400C07833
:1012B00020F080007E4951F82410C87081490857F9
:1012C00000F05BF976E055B1794850F82400C07819
:1012D00040F02000764951F82410C87009E07448A5
:1012E00050F82400C07820F02000714951F82410F3
:1012F000C8707449085700F040F95BE055B16C487C
:1013000050F82400C07840F08000694951F824105A
:10131000C87009E0664850F82400C07820F08000CA
:10132000634951F82410C87055B1614850F8240041
:10133000C07A40F080005E4951F82410C87209E07C
:101340005B4850F82400C07A20F08000584951F8DA
:101350002410C8722EE05DB1554850F82400C078C2
:1013600040F02000524951F82410C8700AE020E0F3
:101370004F4850F82400C07820F020004C4951F824
:101380002410C87055B14A4850F82400C07A40F083
:101390002000474951F82410C87209E0444850F829
:1013A0002400C07A20F02000414951F82410C8726E
:1013B00000E000BF00BF70BD10B500EB40023F4B26
:1013C00053F82220126800EB40033C4C04EB8303EB
:1013D0005B681A4300EB400354F823301A6011B1E4
:1013E000394A42F8201010BD10B500EB4002334BD3
:1013F00053F82220126800EB4003304C04EB8303C7
:101400005B681A4300EB400354F823301A6011B1B3
:101410002E4A42F8201010BD73B584B00E4604ACBD
:101420000296207800F007008DF8040000208DF867
:101430000C008DF80D0000250DE02388C3F3821207
:10144000C3F344232B44D9B22378C3F3C200FFF77C
:1014500057F9681CC5B22068C0F38430A842ECDCA0
:101460006846FFF7F1FC217801F007000021FFF743
:1014700086FE217801F007000021FFF797FE207813
:1014800000F0070006B070BD1CB50446084850F8CF
:101490002400007910F0800F26D0054850F8240071
:1014A000C07810F0800F1FD0074850F824000FE0DC
:1014B000F45500000800FF1F0900FF1F0C56000034
:1014C0005C560000545600009400FF1FAC00FF1F44
:1014D00020B1304850F8241001A88847BDF8040016
:1014E0002D4951F82410C8712B4850F82400007978
:1014F00010F0200F15D0284850F82400C07810F0C4
:10150000200F0ED0244850F82400C07901902348C1
:1015100050F8240028B1214850F82410BDF80400E8
:1015200088471D4850F82400007910F0080F05D0B6
:10153000194850F82400C079009000BF1CBD10B5B8
:101540000020FFF7A1FF10BD10B50120FFF79CFFA1
:1015500010BD10B50220FFF797FF10BD10B5032096
:10156000FFF792FF10BD10B50420FFF78DFF10BDEF
:1015700010B50520FFF788FF10BD00F01F02012104
:10158000914042094FF0E02303EB8202C2F80011C0
:10159000704700009400FF1FF4550000AC00FF1FCF
:1015A00072B64CF220505349C8814DF62810C881BC
:1015B00062B670472DE9F0410446012002F074FE46
:1015C000074640F2D316207810B1012806D102E078
:1015D00026F0080603E046F0080600E000BF00BF62
:1015E000FFF7DEFFF8084FF47A71B0FBF1F06168A5
:1015F00000FB01F5280C3F498880CD80F8084FF4A6
:101600007A71B0FBF1F0A16800FB01F5280C3949B3
:1016100008814D814FF4E060C88246F001060E80DB
:10162000BDE8F0813EB5044600208DF8000001942D
:10163000600802906846FFF7BDFF3EBD10B5044646
:10164000FFF7AEFF012C06D12A48008840F00400C5
:101650002849088005E02748008820F00400254933
:101660000880012C0BD116200121814042094FF046
:10167000E02303EB8202C2F8001100BF08E016204D
:10168000012181401C4A430942F8231000BF00BFDA
:1016900010BD08B11949086070471648808A704724
:1016A0004FF6FF701349888270471249098A08046F
:1016B0001049498A0843704772B64AF202610D4ADE
:1016C00091814BF28041918162B6002001E000BF20
:1016D000401C1428FBD3704710B50648408840F4DE
:1016E0000040044948800548006810B10349086873
:1016F000804710BD0020054080E100E01400FF1F7E
:1017000010B504465F48C06B40F400005D49C863F3
:10171000012002F0C9FD5C490860084600685B4989
:10172000B0FBF1F0584908606068096848435849BF
:10173000227801EB021108605548217800EB011076
:10174000806840F001015248227800EB021081606D
:101750005048006820F002004E49086010BD7CB57A
:1017600005460C468DF8005001946846FFF7C8FF07
:101770007CBD70B50B464349C96B41F40001414C37
:10178000E16372B1444C215601F01F050124AC40C5
:101790004D094FF0E02606EB8505C5F8004100BF76
:1017A00000BF52B13A4901EB0011896841F00204CF
:1017B000374901EB00118C6009E0354901EB00115C
:1017C000896821F00204324901EB00118C604AB9AA
:1017D0002F4901EB0011C96841F001042C4901EBCC
:1017E0000011CC6070BD2A4901EB0011896821F01D
:1017F0000102274901EB00118A60254901EB001124
:10180000896841F00102224901EB00118A607047AA
:1018100001461F4800EB011040687047194AD26B1F
:1018200042F40002174BDA6311B11C4A42F820104F
:10183000704710B50446164800EB0410C06840F02D
:101840000101134800EB0410C160144850F8240053
:1018500018B1124951F82400804710BD10B500207E
:10186000FFF7E7FF10BD10B50120FFF7E2FF10BD45
:1018700010B50220FFF7DDFF10BD10B50320FFF704
:10188000D8FF10BD008004401800FF1F40420F0029
:10189000007103400070034078560000C400FF1F31
:1018A0000246F64850F8220050F8210010F0800F50
:1018B00001D0002070470120FCE730B50146EF4819
:1018C00050F82100406A40F04000EC4D55F821509E
:1018D0006862EA4850F82100406A40F08000E74D15
:1018E00055F821506862002400E0641CE4488442FA
:1018F000FBD3E24850F82100406A10F0400F01D0BD
:10190000012030BD0022DD4850F82100C06C0244A7
:10191000DA4850F82100806C0244D84850F8210081
:10192000406C0244D54850F82100006C0244D34872
:1019300050F82100C06B0244D04850F82100806B61
:1019400002444FF4004040EA52020023CB4850F8D2
:101950002100C06E0344C94850F82100806E034442
:10196000C64850F82100406E0344C44850F8210096
:10197000006E0344C14850F82100C06D0344BF48C5
:1019800050F82100806D03444FF4004040EA5303B7
:10199000BA4850F82100406A20F08000B74D55F851
:1019A00021506862B54850F82100C262B34850F82F
:1019B000210003630020A4E710B50446206800EB73
:1019C0004000B04951F820000068216801EB410156
:1019D000AC4A02EB810149680843216801EB4101EF
:1019E00052F821100860A549206851F8200080684D
:1019F00020F06000A14A216852F821108860114649
:101A0000206851F8200080686179602202EA411163
:101A100008439A4A216852F82110886011462068CC
:101A200051F82000806840F08000216852F82110B1
:101A300088601146206851F82000006A20F00300F9
:101A4000216852F8211008621146206851F82000E0
:101A5000006AA17A01F003010843216852F82110BD
:101A600008621146206851F82000806820F00C00C0
:101A7000216852F8211088601146206851F8200032
:101A80008068A1790C2202EA810108437B4A21681F
:101A900052F821108860207901280BD11146206866
:101AA00051F82000006A40F04000216852F82110EF
:101AB00008620BE07149206851F82000006A00F0CC
:101AC00040006E4A216852F821100862207A60B9FD
:101AD0006A49206851F82000406A40F00800674ACF
:101AE000216852F8211048620BE06449206851F8DF
:101AF0002000406A20F00800604A216852F8211056
:101B00004862607A052878D2DFE800F0031031548B
:101B100078005A49206851F82000406A20F00400FB
:101B2000564A216852F8211048628BE053492068D8
:101B300051F82000406A40F00400504A216852F8F1
:101B4000211048621146206851F82000406A20F0B8
:101B50000300216852F8211048621146206851F8AC
:101B60002000406A216852F8211048626AE0434927
:101B7000206851F82000406A40F004003F4A216884
:101B800052F8211048621146206851F82000406A3E
:101B900020F00300216852F82110486211462068A5
:101BA00051F82000406A40F00100216852F82110ED
:101BB000486247E03149206851F82000406A40F00F
:101BC00004002E4A216852F821104862114620680C
:101BD00051F82000406A20F00300216852F82110DB
:101BE00048621146206851F82000406A40F0020027
:101BF000216852F82110486224E022E01F49206841
:101C000051F82000406A40F004001C4A216852F854
:101C1000211048621146206851F82000406A20F0E7
:101C20000300216852F8211048621146206851F8DB
:101C30002000406A40F00300216852F821104862F9
:101C400000E000BF00BF2068FFF737FE10BD51B1B4
:101C50000A4A52F82020126A42F04002074B53F819
:101C600020301A6209E0054A52F82020126A02F078
:101C70004002024B53F820301A6270477C56000035
:101C8000A08601008456000049B9844A52F82020F9
:101C9000D26822F01002814B53F82030DA6001291B
:101CA00009D17E4A52F82020D26842F010027B4BC4
:101CB00053F82030DA60704773B584B00E4604AC38
:101CC000207800F00700019003208DF809008DF8BE
:101CD0000A6000208DF808008DF80B0001208DF8B7
:101CE0000C0000208DF80D008DF80E00002518E086
:101CF0002388C3F38212C3F344232B44D9B223783D
:101D0000C3F3C200FEF7FCFC2288C2F344222A443B
:101D1000D1B22278C2F3C2000022FEF716FD681C81
:101D2000C5B22068C0F38430A842E1DC01A8FFF707
:101D300043FE2268110E227802F00700FFF7A4FF8D
:101D4000207800F0070006B070BD10B5534B53F873
:101D5000203053F8223023F01F03504C54F8204019
:101D600044F822304D4B53F8203053F8223001F024
:101D70001F042343494C54F8204044F8223010BD3E
:101D80000246464850F82200103050F821007047B3
:101D900071B56C46207800F007052068C0F3C44692
:101DA000002231462846FFF7D0FF00BF3B4850F8DD
:101DB0002500006810F0800FF8D000212846FFF7BA
:101DC000DFFF78BD70B5134633B1012B1CD0022B59
:101DD00025D0032B49D13DE0314C225602F01F059E
:101DE0000124AC402F4D560945F8264000BF2B4A30
:101DF00052F8202052F8212022F04002274C54F8BB
:101E0000204044F8212031E0244A52F82020126A70
:101E100022F00402214C54F82040226226E01F4A9E
:101E200052F8202052F8212042F040021B4C54F876
:101E3000204044F821201A4C225602F01F050124AC
:101E4000AC4055094FF0E02606EB8505C5F800418A
:101E500000BF0BE0114A52F82020126A42F004023F
:101E60000E4C54F82040226200E000BF00BF70BD5D
:101E700011B10D4A42F82010704710B50A480068A9
:101E800010B109490868804710BD10B50648406880
:101E900010B105494868804710BD00007C5600001D
:101EA0009C56000080E100E01C00FF1F30B500EBF5
:101EB0004003FE4C54F823301B6800EB4004FB4DFC
:101EC00005EB84046468234300EB400455F8244088
:101ED00023600023F64C54F820402360F44B53F861
:101EE00020305B6D43F00403F14C54F820406365EF
:101EF0000023EF4C54F820406360ED4C54F8204030
:101F0000E364EB4B53F8203099604FF0FF33E84C1B
:101F100054F82040C4F8983030BD014609B1012979
:101F200001D100207047022901D0032901D10120ED
:101F3000F8E7042901D0052901D10220F2E70320A6
:101F4000F0E72DE9F04104460E4615461F464FF0D6
:101F50000008062D34D2DFE805F0030B131B232BFA
:101F60003046FFF7DAFFC100012000FA01F828E04F
:101F70003046FFF7D2FFC100022000FA01F820E04E
:101F80003046FFF7CAFFC100042000FA01F818E04C
:101F90003046FFF7C2FFC100102000FA01F810E040
:101FA0003046FFF7BAFFC100202000FA01F808E030
:101FB0003046FFF7B2FFC100402000FA01F800E010
:101FC00000BF00BF012F0AD1B94850F82400406E6D
:101FD00040EA0800B64951F82410486609E0B448C0
:101FE00050F82400406E20EA0800B14951F824104E
:101FF0004866BDE8F08110B512B1012A3AD11CE063
:10200000AB4B53F820300C3353F8313023F0040439
:10201000A74B53F820300C3343F83140A44B53F80E
:1020200020300C3353F8313043F00804A04B53F800
:1020300020300C3343F831401DE09D4B53F82030E5
:102040000C3353F8313043F00404994B53F82030EB
:102050000C3343F83140964B53F820300C3353F88F
:10206000313023F00804924B53F820300C3343F8FE
:10207000314000E000BF00BF10BD70B504460D4602
:102080001646062E7ED2DFE806F0035BF7F8A2F5CF
:10209000874850F82400406D20F00100844951F831
:1020A00024104865824850F82400D0F8800020F0C1
:1020B00001007F4951F82410C1F880007C4850F895
:1020C0002400006820F02000794951F824100860AD
:1020D000774850F824000C3050F8350040F03001BB
:1020E000734850F824000C3040F83510002229467F
:1020F0002046FFF780FF00231A4629462046FFF7B7
:1021000020FF0023012229462046FFF71AFF002363
:10211000022229462046FFF714FF00230322294606
:102120002046FFF70EFF0023042229462046FFF732
:1021300008FF0023052229462046FFF702FFD4E1CD
:102140005B4850F82400406D20F00100584951F8D8
:1021500024104865564850F82400D0F8800020F03C
:102160000100534951F82410C1F88000504850F83C
:102170002400006840F020004D4951F82410086008
:10218000002300E0B0E11A4629462046FFF7D9FEB9
:102190000023012229462046FFF7D3FE0023022216
:1021A00029462046FFF7CDFE00230322294620467C
:1021B000FFF7C7FE0023042229462046FFF7C1FE91
:1021C0000023052229462046FFF7BBFE8DE1384853
:1021D00050F82400D0F8800020F00100344951F874
:1021E0002410C1F88000324850F82400406D20F0DF
:1021F00001002F4951F8241048652D4850F824005B
:10220000006820F020002A4951F82410086028486E
:1022100050F824000C3050F8350020F030012448EC
:1022200050F824000C3040F8351000231A46294697
:102230002046FFF786FE0023012229462046FFF7AD
:1022400080FE0023022229462046FFF77AFE002363
:10225000032229462046FFF774FE00230422294664
:102260002046FFF76EFE0023052229462046FFF791
:1022700068FE3AE1E9E000E076E00D4850F824001D
:10228000D0F8800020F00100094951F82410C1F86D
:102290008000074850F82400006820F0200004491E
:1022A00051F824100860024804E00000BC56000009
:1022B000A056000050F82400406D40F00400FE4994
:1022C00051F824104865FC4850F82400406D40F057
:1022D0000100F94951F824104865012300222946DC
:1022E0002046FFF72EFE01231A4629462046FFF717
:1022F00028FE0023022229462046FFF722FE002363
:10230000032229462046FFF71CFE0123042229460A
:102310002046FFF716FE0023052229462046FFF738
:1023200010FEE54850F824000C3050F8350040F01D
:102330003001E14850F824000C3040F835100022FC
:1023400029462046FFF757FE0320DB4951F82410A9
:102350008865D94850F82400806D40F08000D64947
:1023600051F824108865C0E0D34850F82400D0F814
:10237000800020F00100D04951F82410C1F88000FD
:10238000CD4850F82400006820F02000CA4951F8D8
:1023900024100860C84850F82400406D40F0040044
:1023A000C54951F824104865C34850F82400406DD1
:1023B00040F00100C04951F8241048650123002273
:1023C00029462046FFF7BDFD00230122294620466D
:1023D000FFF7B7FD0023022229462046FFF7B1FD93
:1023E0000023032229462046FFF7ABFD01230422E8
:1023F00029462046FFF7A5FD002305222946204651
:10240000FFF79FFDAC4850F824000C3050F8350021
:1024100040F03001A84850F824000C3040F8351046
:10242000002229462046FFF7E6FD0320A24951F885
:1024300024108865A04850F82400806D40F080008A
:102440009D4951F8241088654FE09B4850F82400BE
:10245000D0F8800040F00100974951F82410C1F8ED
:102460008000954850F82400006820F02000924930
:1024700051F824100860904850F82400406D40F056
:1024800004008D4951F8241048658B4850F8240009
:10249000406D40F00100884951F82410486501233F
:1024A000002229462046FFF74CFD00230122294641
:1024B0002046FFF746FD0023022229462046FFF76B
:1024C00040FD0023032229462046FFF73AFD002362
:1024D000042229462046FFF734FD00230522294621
:1024E0002046FFF72EFD00E000BF00BF70BDF7B52E
:1024F0000E4617466C46217801F0070004224FF67D
:10250000FF71FFF7D3FC217801F0070005220021BD
:10251000FFF7B3FD16B1012E48D123E0207800F07B
:102520000700654951F82000D0F8800020F0200015
:10253000217801F00701604A52F82110C1F88000AB
:10254000207800F00700114651F82000D0F88000F4
:1025500020F01000217801F0070152F82110C1F895
:10256000800024E0207800F00700534951F8200053
:10257000D0F8800040F02000217801F007014E4A99
:1025800052F82110C1F88000207800F007001146B1
:1025900051F82000D0F8800040F01000217801F0C0
:1025A000070152F82110C1F8800000E000BF00BF11
:1025B00017B1012F26D112E0207800F007003E4924
:1025C00051F82000D0F8800020F00800217801F0B8
:1025D0000701394A52F82110C1F8800013E0207831
:1025E00000F00700344951F82000D0F8800040F096
:1025F0000800217801F007012F4A52F82110C1F894
:10260000800000E000BF00BF002523E02388C3F363
:102610008212C3F344232B44D9B22378C3F3C200FC
:10262000FEF76EF82288C2F344222A44D1B22278FF
:10263000C2F3C2000122FEF788F82288C2F34422C6
:102640002A44D1B22278C2F3C2000122FEF7CEF8AA
:10265000681CC5B22068C0F38430A842D6DC20785C
:1026600000F00700FEBD144B53F82030D3F8803043
:10267000C3F380031370104B53F820305B689BB298
:102680000B60704700210C4A52F8202051607047BF
:1026900070B51346084C54F82040A4685C4342F2DD
:1026A0001075B4FBF5F2044C54F82040646E14F03D
:1026B000013F32D00C4601E0A056000001EBD4757A
:1026C0006D10B1EB450510D00026F74C54F82040B2
:1026D0000C344D1E04EBC5046660F34C54F82040E6
:1026E0000C3404EBC10462600FE00025EE4C54F89A
:1026F00020400C3404EBC1046560EB4C54F82040DE
:102700000C344D1C04EBC50462604FF0FF34E64D01
:1027100055F82050C5F8984006E0E34C54F82040A6
:102720000C3404EBC104626070BD2DE9F74F82B038
:102730008A469146002702AC00250DE02388C3F3AA
:102740008212C3F344232B44D9B22378C3F3C200CB
:10275000FDF7D6FF681CC5B22068C0F38430A842DC
:10276000ECDC4FF6FF700190012001F09DFD8046EA
:10277000B8FBF9F04FF6FF71B0FBF1F6B8FBF9F0DA
:10278000B0FBF6F0B0F5803F00D3761C00251EE0CC
:10279000012000FA05F0301A03D50120A840801B63
:1027A00002E00120A840301A019988420DD22F463C
:1027B000012000FA05F0301A03D50120A840801B43
:1027C00002E00120A840301A0190681CC5B2072D14
:1027D000DEDB0120B840B04201DA781CC7B2072F17
:1027E00000DD07270120B840B8FBF0F0B0FBF9F09E
:1027F000A0F1010B217801F007003A465946FFF796
:1028000055FBBAF1000F06D0BAF1010F0DD0BAF1A5
:10281000020F1ED113E02268C2F3C441227802F0F5
:1028200007000022FFF729FC14E02268C2F3C4412C
:10283000227802F007000222FFF71FFC0AE022685C
:10284000C2F3C441227802F007000322FFF715FC0F
:1028500000E000BF00BF2268C2F3C441227802F04A
:10286000070041F28832FFF713FF207800F00700DD
:102870008D4951F82000006820F01800217801F0FF
:102880000701894A52F821100860207800F00700FB
:10289000114651F82000006840F00800217801F04E
:1028A000070152F821100860207800F00700114657
:1028B00051F82000006820F00700217801F007019E
:1028C00052F821100860207800F00700114651F8F6
:1028D0002000006807F007010843217801F0070194
:1028E00052F821100860207800F0070005B0BDE81C
:1028F000F08F73B50E466C4600250CE02388C3F3B9
:102900008212C3F344232B44D9B22378C3F3C20009
:10291000FDF7F6FE6D1C2068C0F38430A842EDD8A8
:10292000217801F0070032464FF6FF71FFF7BEFA3B
:10293000207800F007005C4951F82000006820F082
:102940001800217801F00701574A52F82110086059
:10295000207800F00700114651F82000006840F090
:102960000800217801F0070152F821100860207852
:1029700000F00700114651F82000006820F0070021
:10298000217801F0070152F821100860207800F04A
:102990000700114651F82000006840F0020021783D
:1029A00001F0070152F8211008602268C2F3C44107
:1029B000227802F007000422FFF75FFB7CBD10B510
:1029C000394B53F820300C3353F8313023F00C04DA
:1029D000354B53F820300C3343F8314022B1012AF3
:1029E0001FD0022A49D139E02F4B53F820300C3345
:1029F00053F8313023F008042B4B53F820300C33BC
:102A000043F83140284B53F820300C3353F8313021
:102A100043F00404244B53F820300C3343F8314086
:102A20002CE0214B53F820300C3353F8313043F075
:102A300008041D4B53F820300C3343F831401A4B37
:102A400053F820300C3353F8313023F00404164B84
:102A500053F820300C3343F831400FE0124B53F859
:102A600020300C3353F8313043F00C040E4B53F844
:102A700020300C3343F8314000E000BF00BF10BDF0
:102A80000246094850F822000C3000EBC1004068B3
:102A90007047054A52F820205160704711B1034A2F
:102AA00042F8201070470000A0560000D400FF1F1D
:102AB00070B511297ED2DFE801F0092021222324FC
:102AC00025262748494A4B4C4D4E4F0052B19F4B4B
:102AD00053F820301B6843F040039C4C54F82040CE
:102AE000236009E0994B53F820301B6823F0400322
:102AF000964C54F8204023607EE000BF00BF00BF2A
:102B000000BF00BF00BF00BF7AB1904B53F8203028
:102B10000C334C1E53F8343043F040058B4B53F8C4
:102B200020300C3343F834500EE0884B53F82030FB
:102B30000C334C1E53F8343023F04005834B53F8CC
:102B400020300C3343F8345056E000BF00BF00BFC4
:102B500000BF00BF00BF00BF92B17C4B53F82040C4
:102B60000C34A1F1090354F8333043F04005774B9E
:102B700053F820400C34A1F1090344F8335011E01C
:102B8000724B53F820400C34A1F1090354F8333050
:102B900023F040056D4B53F820400C34A1F109039C
:102BA00044F83350A2B1694B53F820400C34A1F1E2
:102BB000090300E01FE054F8333043F00105634B94
:102BC00053F820400C34A1F1090344F8335011E0CC
:102BD0005E4B53F820400C34A1F1090354F8333014
:102BE00023F00105594B53F820400C34A1F109039F
:102BF00044F8335000E000BF00BF554C235603F0AB
:102C00001F050124AC405D094FF0E02606EB850569
:102C1000C5F8004100BF70BD10B54E48006810B146
:102C20004C490868804749480068006810F0C00FA8
:102C300007D046480068006820F0800043490968D2
:102C40000860002415E0414800680C3050F834005A
:102C500010F0C00F0CD03D4800680C3050F8340024
:102C600020F08001394800680C3040F8341004E04E
:102C7000641C39480068A042E5D800BF10BD10B5FB
:102C80003448406810B13349486880472F4840684D
:102C9000006810F0C00F07D02C484068006840F072
:102CA00080002A4949680860002415E027484068E8
:102CB0000C3050F8340010F0C00F0CD0234840689E
:102CC0000C3050F8340020F08001204840680C306F
:102CD00040F8341004E0641C1F484068A042E5D866
:102CE00000BF10BD10B51B48806810B11949886835
:102CF000804716488068006810F0C00F07D013485E
:102D00008068006820F0800010498968086000240D
:102D100015E00E4880680C3050F8340010F0C00FF9
:102D20000CD00A4880680C3050F8340020F0800144
:102D3000064880680C3040F8341004E0641C0648F3
:102D40008068A042E5D800BF10BD0000A05600007A
:102D5000EC560000D400FF1FB05600002DE9FF4FD5
:102D600082B004468C46DDF810B0FC4850F82400D0
:102D7000006810F0004F03D1002006B0BDE8F08FCE
:102D80004FF0FF324FF000084FF000090120019092
:102D900000200090002126E000231FE0012518E01C
:102DA000EF4850F82100DFF8BCE35EF823E000FBB9
:102DB0000EFE05986843B0FBFEF6B34508D3ABEBB7
:102DC000060A524504D9524688469946009601950E
:102DD0006D1C032D01D2002AE2D15B1C102B01D205
:102DE000002ADBD1491C042901D2002AD4D1DB48B6
:102DF00050F824000C3050F82C70DB480740019844
:102E0000401E0BD04FF4403000EA084040F0004034
:102E100009F00F0E40EA0E00074308E04FF440307F
:102E200000EA084009F00F0E40EA0E000743CB48C5
:102E300050F824000C3040F82C7000989DE72DE9E4
:102E4000F05F06460C4617469846DDE90A9AC348E5
:102E500050F8265005F10C0050F8240020F0F04105
:102E600005F10C0040F8241050F82400A8F10101ED
:102E70004FF0F04202EAC161084305F10C0141F84C
:102E80002400B9F1000F03D0B9F1010F16D10AE007
:102E900005F10C0050F8240020F0807105F10C00C1
:102EA00040F824100BE005F10C0050F8240040F02D
:102EB000807105F10C0040F8241000E000BF00BF55
:102EC00037B1012F17D0022F28D0032F4CD138E073
:102ED00005F10C0050F8240020F0806105F10C0091
:102EE00040F8241050F8240020F0007105F10C0087
:102EF00040F8241039E005F10C0050F8240020F0CF
:102F0000806105F10C0040F8241050F8240040F0D6
:102F1000007105F10C0040F8241026E005F10C00CA
:102F200050F8240040F0806105F10C0040F82410B6
:102F300050F8240020F0007105F10C0040F8241036
:102F400013E005F10C0050F8240040F0806105F119
:102F50000C0040F8241050F8240040F0007105F1F6
:102F60000C0040F8241000E000BF00BF012001F079
:102F70009BF98346E1B25B4652463046FFF7EEFED0
:102F800005F10C0050F824007849084305F10C01C4
:102F900041F82400BDE8F09F7CB505466F492868DC
:102FA00051F82040286800EB4000714951F820009A
:102FB0000068296801EB41016D4A02EB8101496813
:102FC0000843296801EB410152F82110086020688C
:102FD00040F001002060287910B101280AD104E0F6
:102FE000206840F00040206005E0206820F00040AC
:102FF000206000E000BF00BF206820F48040206017
:1030000020685C4908432060A979A868CDE90010D0
:103010006B79EA79E9682868FFF711FF4FF0FF3014
:10302000E062206820F0010020607CBDF7B584B02C
:103030000E46174604AC02978DF8076008208DF8FD
:103040000500207800F00700009000208DF80400B3
:103050008DF80600039000250CE02388C3F382124C
:10306000C3F344232B44D9B22378C3F3C200FDF742
:1030700047FB6D1C2068C0F38430A842EDD8684639
:10308000FFF78AFF207800F0070007B0F0BD334A51
:1030900052F82020126822F48042304B53F820303E
:1030A0001A6051B12D4A52F82020126822F40052C1
:1030B0002A4B53F820301A6009E0284A52F82020A1
:1030C000126842F40052254B53F820301A607047C2
:1030D000224A52F82020126822F480421F4B53F8F3
:1030E00020301A6051B11D4A52F82020126822F493
:1030F00080521A4B53F820301A6009E0174A52F8F0
:103100002020126842F48052144B53F820301A6089
:103110007047F0B503460C46104951F8230024B11E
:10312000012C2BD0022C53D13DE022B1016B41F098
:103130000041016303E0016B21F0004101630E4D8A
:10314000E95601F01F060125B5404E094FF0E02772
:1031500007EB8606C6F8005100BF3AE0F0560000C3
:103160002457000034570000F0FFFC7F001150008E
:10317000FC560000013C3F002057000022B1016BCB
:1031800041F00071016303E0016B21F00071016304
:1031900022B1016B41F08071016303E0016B21F00A
:1031A0008071016315E022B1016B41F400310163CC
:1031B00003E0016B21F40031016322B1016B41F4A2
:1031C0008031016303E0016B21F48031016300E091
:1031D00000BF00BFF0BD11B12F4A42F82010704768
:1031E000F0B50446059D4FF0004000EAC5704FF071
:1031F000E04606EA0176304301269E404FF47C17F4
:1032000007EA0646304396B23043244E56F824600F
:103210007063224850F82400006B10F0004F11D169
:1032200000BF1E4850F82400C06A10F0004FF8D0CC
:103230001A4850F82400C06A40F00040174E56F873
:103240002460F062154850F82400806B80B2F0BD15
:1032500010B50446114850F82400C06A40F0004000
:103260000E4951F82410C8620B4850F8240018B1D8
:10327000094951F82400804710BD10B50020FFF720
:10328000E7FF10BD10B50120FFF7E2FF10BD10B53C
:103290000220FFF7DDFF10BDE400FF1FF056000025
:1032A0008A4909680968894A52681143874A12683D
:1032B00011600021864A11605160916011460968D1
:1032C00021F0010111601146096821F0040111602B
:1032D0001146096821F00201116005215160018841
:1032E00091601146096841F001011160704777490A
:1032F00009680968754A52681143744A1268116076
:103300000021734A1160516091601146096821F0F3
:10331000010111601146096821F004011160114694
:10332000096841F002011160052151600188916036
:10333000817821B1012907D0022913D10BE064491A
:103340000968634A11600EE06149096841F01001A3
:103350005F4A116007E05E49096841F020015C4A5C
:10336000116000E000BF00BFC17811B101290ED18A
:1033700006E05749096821F00801554A116007E045
:103380005349096841F00801514A116000E000BF4B
:1033900000BF4F49096841F001014D4A1160704773
:1033A00030B50246494800680068484B5B681843DE
:1033B000464B1B68186079B1464B93F9000000F04A
:1033C0001F040123A34044094FF0E02505EB8404CA
:1033D000C4F8003100BF00BF72B931B13C48006889
:1033E00040F040003A4B186005E03948006820F092
:1033F0004000374B186000E000BF00BF30BD3349CC
:1034000009680968314A52681143304A12681160EC
:1034100008B13149086070472D490C3141F2342020
:1034200008602B48C06880B2704731B582B002ACEA
:103430004FF6FF70ADF804002068C0F3C4400128C7
:1034400002D0022808D103E001208DF8060004E034
:1034500002208DF8060000E000BF00BF00208DF8BC
:10346000070000250CE02388C3F38212C3F3442332
:103470002B44D9B22378C3F3C200FDF741F96D1C88
:103480002068C0F38430A842EDD801A8FFF72FFFD1
:10349000207800F007003EBD0D48006820F00100D4
:1034A0000B4908600846006840F00100086070475A
:1034B00010B50748006840F08000054908600648DC
:1034C000006810B104490868804710BD78570000B3
:1034D00000000440745700002400FF1F10B501468F
:1034E000F84AD26B42F00202F64BDA631A46126CCB
:1034F00042F002021A640878F34AD268012383403A
:103500009A43F14BDA604A7802F03F02EF4B1B68B6
:103510001A548A7912B1012A12D108E0EB4A1268D2
:10352000125C22F04002E94B1B681A5409E0E74A9A
:103530001268125C42F04002E44B1B681A5400E02F
:1035400000BF00BF0023E24A02EB4012D380E04AF2
:1035500002EB401293834A88DD4B03EB40139A60E1
:103560008A88C2F30E03DA4A02EB4012D3828A88B9
:10357000C2F30E03D64A02EB4012D383D44A02EBC5
:103580004012CB6813600A8993B2D14A02EB401211
:103590009380CF4A02EB4012D3880A7C4FF4E06458
:1035A00004EA02221343CA4A02EB4012D380C84AFB
:1035B00002EB4012D2880B7E4FF4784404EAC32316
:1035C0001A43C34B03EB4013DA80C14B03EB4013A8
:1035D0004A69DA60BE4A02EB40120B6A13618A8BB9
:1035E00093B2BB4A02EB40129382B94A02EB4012FB
:1035F000D28891F8243003F007031A43B44B03EB4D
:103600004013DA80B24A02EB4012D38891F82C20A2
:10361000F82404EAC2021343AD4A02EB4012D380FD
:10362000AB4B03EB40138A6A9A61A94A02EB401242
:10363000928B42F00803A64A02EB40129383A34AFE
:103640001268125C42F08002A04B1B681A5410BD35
:10365000202200210FE0012088409E4B1B68184269
:1036600008D1012088409B4B1B681843994B186078
:1036700008467047491C9142EDD30020F9E701212B
:103680008140944A12688A4392490A607047014611
:103690008F4800EB4110C08AC0F30E0070478C4A7F
:1036A00002EB4012D28AD30BDB03894A02EB4012B1
:1036B000D382874A02EB4012D28AC1F30E031A4327
:1036C000834B03EB4013DA82704700F00F017E4A10
:1036D000D176704700F00F017B4A9176704751B167
:1036E0007B4A02EB4012928B42F00803784A02EBCD
:1036F0004012938309E0764A02EB4012928B22F04B
:103700000803734A02EB40129383704710B50AB363
:103710006F4B03EB40139B8B43F020046C4B03EB8C
:1037200040139C836A4B03EB40139B8B23F4706420
:10373000674B03EB40139C83654B03EB40139B8B60
:103740004FF4706404EA01242343614C04EB4014F9
:10375000A38309E05E4B03EB40139B8B23F0200413
:103760005B4B03EB40139C8310BD70B50B4672B1ED
:10377000594C215601F01F050124AC404D094FF072
:10378000E02606EB8505C5F8004100BF00BF13B178
:10379000012B2ED116E052B14D4901EB4011898B1E
:1037A00041F004044A4901EB40118C8309E0484987
:1037B00001EB4011898B21F00404454901EB4011D4
:1037C0008C8317E052B1424901EB4011898B41F0E3
:1037D00002043F4901EB40118C8309E03C4901EBB5
:1037E0004011898B21F00204394901EB40118C838F
:1037F00000E000BF00BF70BD11B1384A42F8201090
:10380000704701463048C06801228A4010420ED0FD
:103810002F4800EB4110808B10F0800F05D001F095
:103820000F00294A1077002070470120FCE701F0C3
:103830000F00254A10770020F6E7254A02EB4012D8
:10384000116170470146224800EB41100069704742
:103850001F4A02EB40121160704701461C4800EB02
:103860004110006870471848006840F4003016495D
:103870000860704710B5044604F00F001249C8777D
:10388000164850F8240018B1144951F82400804714
:1038900010BD10B50020FFF7EDFF10BD10B50120E1
:1038A000FFF7E8FF10BD10B50220FFF7E3FF10BDE2
:1038B00010B50320FFF7DEFF10BD10B50420FFF7A1
:1038C000D9FF10BD008004400080004084570000F4
:1038D000009000402800FF1F88570000F000FF1FE5
:1038E00010B50520FFF7C6FF10BD10B50620FFF785
:1038F000C1FF10BD10B50720FFF7BCFF10BD10B50C
:103900000820FFF7B7FF10BD10B50920FFF7B2FF81
:1039100010BD10B50A20FFF7ADFF10BD10B50B208C
:10392000FFF7A8FF10BD10B50C20FFF7A3FF10BDD7
:1039300010B50D20FFF79EFF10BD10B50E20FFF74C
:1039400099FF10BD10B50F20FFF794FF10BD0000C8
:1039500008B5EC49C96B41F00051EA4AD163EA4924
:10396000496921F01001E84A51611146096921F4C1
:10397000807111610178012906D002290BD0032939
:1039800010D004291CD114E0DF49096941F4005129
:10399000DD4A116115E0DC49096941F48051DA4AD8
:1039A00011610EE0D849096941F40061D64A1161FC
:1039B00007E0D549096941F48061D34A116100E00B
:1039C00000BF00BFD049096941F48071CE4A11613E
:1039D0000021009102E00099491C00910099B1F585
:1039E000C02FF8D3C849496941F01001C64A516156
:1039F00008BD08B5032000906846FFF7A9FF08BD81
:103A0000F0B503460D46591E002604E0BF4850F8A5
:103A100026000244761CAE42F8DB022D10DD4FF486
:103A2000C87093FBF0F400FB143040B113F0030FA7
:103A300006D1642093FBF0F400FB143000B1521C5B
:103A4000642091FBF0F00C46CF1701EB977701EB68
:103A5000A707381A4FF4C87791FBF7F7384410449A
:103A6000072790FBF7FC07FB1C00F0BD10B5028890
:103A7000A2F2B27240F26D135A430A600288D31761
:103A800002EB93739B10A3F5F6730C6823440B6051
:103A900043889F4C34F813300A681A440A608388BC
:103AA0000A681A440A60027812F0030F05D14288AE
:103AB000022A02D80A68521E0A60964B0A685A43C4
:103AC000C388C3EB4314C4EB032302EB0312038943
:103AD000C3EB031302EB8302837A1A440A600A6879
:103AE000521C0A6010BDF0B505462A68894FB2FB2A
:103AF000F7F3B2FBF7FC07FB1C224FF46167B2FB44
:103B0000F7F7CF804FF46167B2FBF7FC07FB1C228D
:103B10003C27B2FBF7F70F813C27B2FBF7FC07FB12
:103B20001C278F7240F2B2770F8040F26D160CE0C6
:103B30009B1B0F887F1C0F800F7817F0030F02D09C
:103B400040F26D1601E04FF4B776B342F0D80F782B
:103B500017F0030F01D0704C00E0704C012007E01B
:103B6000275C9F4201D3488004E0275CDB1B401C9C
:103B70000C28F5D900BF8B80F0BD38B5044604B9D8
:103B800038BD61480068009021466846FFF7ABFFEA
:103B900000BFF5E75C48006808B1002070470120CD
:103BA000FCE738B5044604B938BD69462046FFF73E
:103BB0005DFF0098401E5449886000BFF4E7524AF8
:103BC000D26822F47F42504BDA601A46D26822F063
:103BD000FF02DA601A46D2684FF47F4303EA0023FB
:103BE0001A43494BDA601A46D268CBB21A43464BA5
:103BF000DA607047444800687047434880687047FF
:103C000038B5044604B938BD69462046FFF72EFF93
:103C10003D48406920F010003B4948610098086029
:103C20000846406940F01000486100BFEBE73649A4
:103C3000496921F01001344A51611146086049690F
:103C400041F010015161704730B5024669B12E2034
:103C500000F01F040123A34044094FF0E02505EBC9
:103C60008404C4F8003100BF00BF82B1012A1DD115
:103C700031B12548C06940F00200234BD86105E00E
:103C80002148C06920F002001F4BD8610FE031B11C
:103C90001D48C06940F004001B4BD86105E01A487C
:103CA000C06920F00400184BD86100E000BF00BFDD
:103CB00030BD08B11A490860704710B5184800684F
:103CC00010B11749086880470F48C06910F0020F0B
:103CD00008D00D48406910F0020F03D00A48006870
:103CE000094908600848C06910F0040F08D0064868
:103CF000406910F0040F03D00348806802498860CF
:103D000010BD00000080044000D003403000FF1FC1
:103D1000B25700008051010098570000A5570000DD
:103D20002C00FF1FF74900E0491C11F00F0FFBD1D9
:103D3000F54A1160F54900E0491C11F00F0FFBD165
:103D4000F34A1160002011E00022EF4B1B6803EBE7
:103D500040135A80EC4B1B6803EB40131A80182267
:103D6000E94B1B6803EB40139A60401C0028EBD022
:103D7000E84900E0491C11F00F0FFBD1002021E0C1
:103D80008022E34B1B6803EB40131A800022E04BB8
:103D90001B6803EB40135A800ABADD4B1B6803EB28
:103DA00040135A6001F2EE510022D94B1B6803EB1D
:103DB00040131A614FF40042D54B1B6803EB4013CC
:103DC0009A60401C0028DBD0CF4A1268128842F06B
:103DD0002002CD4B1B681A80CD4A1268128842F02F
:103DE0002002CB4B1B681A80704770B503464FF01A
:103DF000FF31002212E09C5C00250CE004F0010081
:103E000001F00106704003D04908C348414000E07A
:103E1000490864106D1C082DF0DB521C062AEADBF1
:103E2000880E70BD70B5044620780006617840EABF
:103E30000140A17840EA0120E1780843B7490860D1
:103E400020794FEA0060617940EA0140B449C1F845
:103E5000E8002046FFF7C9FF0546202D0DDBB148DD
:103E60000068A5F120014FF0010202FA01F240EAD8
:103E70000200AB49C1F818010AE0AB4800684FF0F6
:103E8000010101FA05F140EA0100A549C1F81C0150
:103E900070BD70B5A548C06A40F00100A349C86272
:103EA0000020A3490860012000F0FEF905464FF408
:103EB0007A70B5FBF0F04FF47A71B0FBF1F460006A
:103EC0000521B0FBF1F0401C7E2101EA400094493D
:103ED000486470BD70B503460C460020904D6D6877
:103EE00045F400058E4E75604FF0786505EAC355C0
:103EF00045F0A0454FF4F80606EA8446354345F4FC
:103F0000003596B23543864E3564002106E0844D77
:103F10006D6815F4000F00D003E0491C854DA942DF
:103F2000F5D300BF01B901207D4D6D6845F4000552
:103F30007B4E756070BD70B503460C460020784D11
:103F40006D6845F40005764E75604FF0786505EABA
:103F5000C35545F0C0454FF4F80606EA844635439C
:103F600045F400356E4E3564002106E06C4D6D68F9
:103F700015F4000F00D003E0491C6E4DA942F5D3A3
:103F800000BF01B90120664D2D6C1580644D6D6830
:103F900045F40005624E756070BD70B50446634817
:103FA000C06A40F001006149C862002060490860B1
:103FB00001205B494862002502E000BF681C85B211
:103FC000642DFADBFFF765FFFFF7ACFE5A48407837
:103FD00020F00400584948705848007840F08000AC
:103FE00056490870002500204F4908604C49C1F827
:103FF000180153490860A1F1040108602068FFF727
:1040000011FF5048504908604FF000004F490860C8
:10401000607970B14C48006840F002004049C1F836
:1040200084000846D0F8C40020F00400C1F8C400A1
:104030000DE04548006820F002003949C1F88400CD
:104040000846D0F8C40040F00400C1F8C40020794C
:1040500038B13D48006840F400703149C1F884002F
:1040600006E03948006820F400702D49C1F884004A
:104070004FF010002A4948623548006843F6F07155
:1040800040EA01002649C1F8880121480068C1F8CA
:1040900080011D4800682F4908604FF0FF3020491B
:1040A00048600846406A40F0020048624FF0807065
:1040B000086170BD70B504460D464FF000601849A8
:1040C000486020BA1049096848602846FCF7EEF9B4
:1040D0000D490968488000200B4909680861602083
:1040E000094909688860AC200749096808804FF0D1
:1040F00080700B49486100BF0948406810F0006FAC
:10410000FAD170BD3001FF1F6800FF1F6001FF1F63
:104110006C00FF1F9001FF1F2083B8EDE4000C40EE
:1041200000000C4018010C401C010C4000800440B1
:1041300000D00040FFFF0100004006400050064054
:1041400024010C400441EE0584000C40C4000C40E6
:1041500088010C4084010C4010B54F48006800787D
:1041600010F0800F05D14C4909684888FCF79EF98A
:1041700010BD0020FCE770B50546002446480068E5
:10418000007810F0800F1BD1434909684888FCF77C
:104190008DF984B240480068406801BA224628463A
:1041A00001F054F93C480068008840F080003A492A
:1041B000096808804FF0807038490861204670BD5A
:1041C0000020FCE710B5044634B1012C0BD0022CC2
:1041D00010D0032C1ED115E03048806820F000601C
:1041E0002E49886017E02D48806820F000702B4928
:1041F000886010E0532000F043F84FF0006027493A
:10420000886008E0542000F03BF84FF0007023492C
:10421000886000E000BF00BF10BD08B12049086001
:10422000704708B11F49086070471C48406810F08B
:10423000006F07D01948406840F000601749486097
:10424000012070470020FCE710B51448406840F09A
:104250000060124948601248006810B110490868AF
:10426000804710BD10B50D48406840F000700B4904
:1042700048600C48006810B10A490868804710BDC2
:1042800000F01F020121914042094FF0E02303EBAF
:104290008202C2F8001170476C00FF1F00000C4042
:1042A0006000FF1F6400FF1F70B505460024FCF787
:1042B0003BF94E48406C012101EB10704C490968F4
:1042C00000FB01F435B1012D0CD0032D12D0042DCB
:1042D00019D117E04548406C012101EB1070B4FB87
:1042E000F0F412E04148406CC0F30360401CB4FBA2
:1042F000F0F40AE03D48406CC0F30340401CB4FBBE
:10430000F0F402E001E0002400BF00BF204670BDD1
:104310003849096841F00401364A116028B1114654
:10432000096841F00201116005E03249096821F095
:104330000201304A116030BF70470146086870477B
:104340002A49086EC96D48402849896D4840704720
:1043500003B5684602680A600CBD2648EC30006868
:1043600040F080702349EC3108602348006840F039
:10437000010021490860704730B501461E4C626853
:104380001B4C24681D4DB4FBF5F404FB01F3D0185D
:10439000904205D900BF184C64688442FBD309E001
:1043A00000BF154C64688442FBD800BF124C64689F
:1043B0008442FBD330BD10B504464FF47A7104FB40
:1043C00001F0FFF7D9FF10BD00B5FFF7C6FF00BD34
:1043D00010B504462046FFF7EEFF10BD10B50446A9
:1043E0002046FFF7C9FF10BD704700000080044061
:1043F0000000FF1F10ED00E0001000E040420F0041
:104400000246072928D2DFE801F004090E13181D1F
:1044100022005068FC4B184350601FE05068FB4B73
:10442000184350601AE05068F94B1843506015E08B
:104430005068F84B1843506010E05068F64B184332
:1044400050600BE05068F54B1843506006E0506830
:10445000F34B1843506001E00120704700BF00207B
:10446000FBE710B50346B2F5006F19D322F06044A4
:10447000EC4850F82300803000EB01104460E9481C
:1044800050F82300803000EB0110006840F4C004B5
:10449000E44850F82300803000EB0110046019E07C
:1044A000E14800EA8244DF4850F82300803000EB06
:1044B00001104460DB4850F82300803000EB01100D
:1044C000006820F4C004D74850F82300803000EB87
:1044D00001100460002010BD10B5D24B53F82030FD
:1044E0001B6843F0A043CF4C54F82040236000BF2A
:1044F000CC4B53F820301B6813F0807FF8D0B2F516
:10450000006F09D3C2F31104C64B53F8203003F5F2
:10451000086343F8214009E0C34B03EA8244C14BDE
:1045200053F8203003F5086343F82140BD4B53F89E
:1045300020301B6823F0A043BA4C54F8204023607D
:1045400000BFB84B53F820301B6813F0807FF8D1C0
:1045500010BD70B504460D46164632462946204623
:10456000FFF77FFFAF4850F82400803000EB0510C4
:10457000006820F07061AB4850F82400803000EBF8
:1045800005100160A74850F82400803000EB0510AA
:10459000006840F08061A34850F82400803000EBB0
:1045A0000510016070BD70B50646306800EB400034
:1045B0009E4951F820000068316801EB41019B4A97
:1045C00002EB810149680843316801EB410152F86F
:1045D000211008609349306851F82040606840F429
:1045E00000506060206820F000402060206840F0AB
:1045F0000070206000BF206810F0007FFBD12068B1
:1046000040F0A040206000BF206810F0807FFBD009
:1046100000251DE0002104F1800000EB0510016081
:1046200004F1800000EB0510416004F1800000EB14
:104630000510816004F1800000EB0510C16004F5F5
:10464000086040F825100020A062401E20636D1C09
:10465000102DDFD3206840F480302060206820F4E3
:104660004070206031792046FFF7CAFE206840F490
:1046700000302060206820F0A040206000BF20684B
:1046800010F0807FFBD100BF206810F0006FFBD1DD
:1046900070BD73B582B00E4602AC207800F0070002
:1046A00000908DF804606846FFF77DFF00250CE060
:1046B0002388C3F38212C3F344232B44D9B2237853
:1046C000C3F3C200FCF71CF86D1C2068C0F38430F3
:1046D000A842EDD8207800F0070004B070BD024673
:1046E0000B46504850F82200803000EB0310006861
:1046F000C0F30361082902D009B1042901D10020C7
:1047000070470846FCE72DE9FC4780460C46924678
:104710001F46DDF82890002000900190414850F895
:10472000285021464046FFF7DAFF10B10220BDE8CD
:10473000FC87002613E0042E08D2B85DC6F1030101
:10474000C900884000990843009007E0B85DC6F1B1
:104750000701C9008840019908430190761C4E4525
:10476000E9D305F1800000EB04100099816005F1A8
:10477000800000EB04100199C16005F1800000EB9E
:104780000410006820F4702105F1800000EB041093
:10479000016005F1800000EB041000684FF4702107
:1047A00001EA0941084305F1800101EB04110860A9
:1047B00005F1800000EB0410006820F4801105F181
:1047C000800000EB04100160524621464046FFF78E
:1047D00048FE05F1800000EB0410006820F07061D5
:1047E00005F1800000EB0410016005F1800000EB92
:1047F0000410006840F0406105F1800000EB0410F7
:104800000160002093E700000400A4770200926397
:10481000020092310400A4180200921302009209CF
:1048200002009204CC5700000000FC1FD05700008B
:104830002DE9F04706460C4690461F46CE4850F8F4
:10484000265021463046FFF74AFF8146B9F1000F56
:1048500002D00220BDE8F08705F1800000EB0410D3
:10486000006820F4702105F1800000EB0410016065
:1048700005F1800000EB041000684FF4702101EA9C
:104880000741084305F1800101EB0411086005F1BF
:10489000800000EB0410006840F4801105F18000F6
:1048A00000EB04100160424621463046FFF7D9FD77
:1048B00005F1800000EB0410006820F0706105F144
:1048C000800000EB0410016005F1800000EB041093
:1048D000006840F0406105F1800000EB04100160C9
:1048E0000020B7E711B1A54A42F82010704770B513
:1048F00004460D46164636B1012E20D0022E0ED0AB
:10490000032E38D127E09C4850F82400806A01210A
:10491000A9408843984951F8241088622CE09648B1
:1049200050F82400806A0121A9400843924951F8B7
:10493000241088629249085700F012F91CE08E4852
:1049400050F82400806A0121A94088438A4951F81F
:104950002410886210E0884850F82400806A012101
:10496000A9400843844951F82410886284490857B3
:1049700000F0F6F800E000BF00BF70BDFCB50446D3
:104980000D46079E0020009001907B4850F82400BF
:10499000803000EB05100068C0F3036717F0010FCB
:1049A00001D00120FCBD744850F82400006B4FF08A
:1049B000010C0CFA05FC10EA0C0F4AD00120A840AB
:1049C000DFF8B4C15CF824C0CCF830006A4850F875
:1049D0002400803000EB05100068C0F30340307005
:1049E000654850F82400803000EB05108068009086
:1049F000614850F82400803000EB0510C068019039
:104A0000002113E0042908D2C1F1030C4FEACC0CB9
:104A1000009820FA0CF0585407E0C1F1070C4FEA57
:104A2000CC0C019820FA0CF05854491C307888427C
:104A3000E8D8514850F82400803000EB0510406859
:104A400020F0604010604C4850F82400816800203D
:104A5000A8E7494850F8240081680120A2E77CB506
:104A600004460D46002000900190434850F8240071
:104A7000D0F88000C0F3034018703F4850F824007D
:104A8000D0F8880000903C4850F82400D0F88C0002
:104A9000019000210FE0042906D2C1F10306F600BF
:104AA0000098F040505405E0C1F10706F600019867
:104AB000F0405054491C18788842ECD82E4850F8E1
:104AC0002400D0F8840020F0604028602A4850F884
:104AD000240081682020284E56F82460306300208E
:104AE0007CBD0146244850F821000068C0F34070A6
:104AF00070470146204A52F82100026842F0A04265
:104B0000026000BF026812F0807FFBD0026842F0B2
:104B100000520260426B4263026822F0A0420260CF
:104B200000BF026812F0807FFBD100BF026812F064
:104B3000006FFBD1704710B50446104850F82400B0
:104B400018B10E4951F82400804710BD10B500205F
:104B5000FFF7F1FF10BD10B50120FFF7ECFF10BD0E
:104B600000F01F020121914042094FF0E02303EBC6
:104B70008202C2F800117047CC5700007000FF1F7E
:104B8000DC570000FD49C96A41F48051FB4AD162FB
:104B9000017911B101291ED10EE0F94A016852F8DC
:104BA000211091F8211041F02001F54B026853F8D3
:104BB000222082F821100FE0F14A016852F82110FA
:104BC00091F8211021F02001ED4B026853F82220CA
:104BD00082F8211000E000BF00BF417931B1012906
:104BE00013D0022938D003297DD15EE0E44A016860
:104BF00052F8211091F8221021F00101E04B0268D7
:104C000053F8222082F822107BE0DD4A016852F836
:104C1000211091F8221041F00101D94B026853F89C
:104C2000222082F822101A46016852F8211091F8C9
:104C3000221021F00601026853F8222082F8221087
:104C40001A46016852F8211091F82210026853F8B0
:104C5000222082F8221054E0C94A016852F821103B
:104C600091F8221041F00101C54B026853F822204F
:104C700082F822101A46016852F8211091F8221089
:104C800021F00601026853F8222082F822101A4609
:104C9000016852F8211091F8221041F002010268D7
:104CA00053F8222082F822102BE0B54A016852F80E
:104CB000211091F8221041F00101B14B026853F824
:104CC000222082F822101A46016852F8211091F829
:104CD000221021F00601026853F8222082F82210E7
:104CE0001A46016800E00BE052F8211091F82210FA
:104CF00041F00401026853F8222082F8221000E0FB
:104D000000BF00BF817911B101291ED10EE09C4A7C
:104D1000016852F8211091F8211021F04001984BC0
:104D2000026853F8222082F821100FE0944A0168AB
:104D300052F8211091F8211041F04001904B026887
:104D400053F8222082F8211000E000BF00BF8C4AF7
:104D5000016852F8211091F8201021F00101884BD0
:104D6000026853F8222082F820101A46016852F88F
:104D7000211091F8201021F00201026853F822203E
:104D800082F820101A46016852F8211091F820107C
:104D900021F00401026853F8222082F820101A46FC
:104DA000016852F8211091F8211041F08001026849
:104DB00053F8222082F8211070470146704850F8BD
:104DC000210090F82300000970476D4A52F8202016
:104DD00092F8232022F0F002694B53F8203083F838
:104DE0002320674A52F8202092F82320F02303EA78
:104DF00001131A43624B53F8203083F82320704785
:104E00005F4A52F8202092F8232022F00F025C4BD8
:104E100053F8203083F82320594A52F8202092F882
:104E2000232001F00F031A43554B53F8203083F829
:104E30002320704770B504460D46082D7ED2DFE86A
:104E400005F010041D2E3F5069844E49085700F0AC
:104E50001F02012191404C4A430942F8231000BF30
:104E600095E0474850F8240090F8220020F0800098
:104E7000434951F8241081F8220088E0404850F856
:104E8000240090F8210040F004003D4951F824101E
:104E900081F821003B49085700F036F977E038489F
:104EA00050F8240090F8210040F00200344951F8F5
:104EB000241081F821003349085700F025F966E0F5
:104EC0002F4850F8240090F8210040F001002C49B0
:104ED00051F8241081F821002A49085700F014F9EC
:104EE00055E0274850F8240090F8210040F00400D5
:104EF000234951F8241081F82100214850F824005A
:104F000090F8220040F080001D4951F8241081F8EB
:104F100022003CE01A4850F8240090F8210040F0AC
:104F20000200174951F8241081F82100144850F864
:104F3000240090F8220040F0800000E026E01049B4
:104F400051F8241081F8220021E00D4850F8240087
:104F500090F8210040F00100094951F8241081F82F
:104F60002100074850F8240090F8220040F080000B
:104F7000034951F8241081F8220008E00080044021
:104F8000E0570000E857000080E100E000BF00BFEC
:104F900070BD634951F8201091F8211041F01001C3
:104FA0005F4A52F8202082F8211070475C4A52F87C
:104FB000202092F8222022F01802594B53F820307A
:104FC00083F8222031B101290FD002291AD00329F8
:104FD00032D124E0524A52F8202092F82220504B3D
:104FE00053F8203083F8222027E04D4A52F8202041
:104FF00092F8222042F00802494B53F8203083F8FF
:1050000022201AE0464A52F8202092F8222042F04C
:105010001002434B53F8203083F822200DE0404A21
:1050200052F8202092F8222042F018023C4B53F80C
:10503000203083F8222000E000BF00BF704730B569
:105040000346002011E011F81040354D55F823506B
:1050500005F8104031F81040240A314D55F823501E
:1050600005EB40056C70441CE0B29042EBDB30BDB8
:1050700011B12C4A42F82010704770B504462848F8
:1050800050F8240090F8215015F0040F0BD024485C
:1050900050F8240090F8200020F00400204951F836
:1050A000241081F8200015F0010F0BD01C4850F897
:1050B000240090F8200020F00100194951F8241034
:1050C00081F8200015F0020F0BD0154850F824008D
:1050D00090F8200020F00200114951F8241081F8C6
:1050E0002000104850F8240018B10E4951F824004F
:1050F000804770BD10B50020FFF7BFFF10BD10B591
:105100000120FFF7BAFF10BD00F01F0201219140FE
:1051100042094FF0E02303EB8202C2F8001170470E
:10512000E05700007400FF1FC248006840F4803060
:10513000C04908607047F0B500241BE0002515E069
:10514000BD4EB0FBF6F74F430126A640DFF8ECC298
:105150001CF805C006FB0CF6B7FBF6F64FF6FF771A
:10516000BE4202D222462B4602E06D1C042DE7D33C
:1051700000BF641C082CE1D3AE4E366826F4E0462E
:10518000AC4F3E603E4636684FF4E04707EA0237D0
:105190003E43A84F3E603E46366826F00C063E6011
:1051A0003E4636680C2707EA83073E43A14F3E6020
:1051B000A14EB0FBF6F74F4301269640DFF87CC2C4
:1051C0001CF803C006FB0CF6B7FBF6F6994F7E60A1
:1051D000994EB0FBF6F74F4301269640DFF85CC2CC
:1051E0001CF803C006FB0CF6B7FBF6F6914FFE6009
:1051F000F0BD90484068704710B504469048C06BB9
:1052000040F480008E49C86300208A49086008463F
:10521000006821794FF4706202EA01210843854950
:105220000860607928B10846006840F00200086014
:1052300005E08048006820F002007E490860A1680F
:105240002068FFF778FF7B48006840F080007949CC
:1052500008600846006840F00100086010BDFEB517
:1052600006460C460120FFF71FF805460F208DF873
:10527000040001208DF80500009502946846FFF7B0
:10528000BBFFFEBD70B583B16A4C103400EB8005E6
:1052900054F8354001258D40EDB22C43654D103555
:1052A00000EB800645F8364010E0624C103400EB0D
:1052B000800554F8354001258D40EDB224EA0505FE
:1052C0005C4C103400EB800644F836509BB1594CCE
:1052D000103400EB800554F8354001258D404FF423
:1052E0007F4606EA05252543524C103400EB800624
:1052F00044F8365012E04F4C103400EB800554F85F
:10530000354001258D404FF47F4606EA0525AC4324
:10531000484D103500EB800645F8364070BD30B57D
:105320009AB1444B103300EB800453F8343001241D
:105330008C404FF47F0505EA044423433D4C103470
:1053400000EB800544F8353013E03A4B103300EBA6
:10535000800453F8343001248C404FF47F0505EA73
:10536000044423EA0404334B103300EB800543F874
:10537000354030BD30B502463148C06B40F4800046
:105380002F4BD86351B9342000F01F040123A340F0
:105390002C4C450944F8253000BF30BD12B1012A1C
:1053A0002BD11BE031B12348006840F02000214B95
:1053B000186005E01F48006820F020001D4B1860B1
:1053C000342000F01F040123A34044094FF0E025DE
:1053D00005EB8404C4F8003100BF0FE031B115487B
:1053E000006840F40040134B186005E01148006865
:1053F00020F400400F4B186000BF00BF00BF00BF8B
:10540000CBE70F49C96B41F480010D4AD16308B164
:105410000D490860704710B50648006820F040004C
:10542000044908600848006810B1074908688047C7
:1054300010BD00000060034040420F00EA5700002A
:105440000080044080E100E07C00FF1F032A40F25E
:10545000308010F0030C00F0158011F8013BBCF116
:10546000020F624498BF11F801CB00F8013B38BF2E
:1054700011F8013BA2F1040298BF00F801CB38BF3C
:1054800000F8013B11F0030300F02880083AC0F057
:10549000088051F8043B083A51F804CBA0E8081002
:1054A000F5E7121D5CBF51F8043B40F8043BAFF335
:1054B0000080D20724BF11F8013B11F801CB48BF8F
:1054C00011F8012B24BF00F8013B00F801CB48BFC5
:1054D00000F8012B704770477047704710B5203AAD
:1054E000C0F00B80B1E81850203AA0E81850B1E89D
:1054F0001850A0E81850BFF4F5AF5FEA027C24BF53
:10550000B1E81850A0E8185044BF18C918C0BDE849
:1055100010405FEA827C24BF51F8043B40F8043B12
:1055200008BF7047D20728BF31F8023B48BF11F8C7
:10553000012B28BF20F8023B48BF00F8012B704721
:10554000754600F029F8AE4605006946534620F03E
:105550000700854618B020B5FBF7A4F8BDE8204049
:105560004FF000064FF000074FF000084FF0000B1F
:1055700021F00701AC46ACE8C009ACE8C009ACE8D2
:10558000C009ACE8C0098D4670470446AFF30080FF
:105590002046FAF784FF0000004870479007FF1F7D
:1055A00001491820ABBEFEE726000200704700004C
:1055B00000F00F4040F00F4080F00F40C0F00F406F
:1055C00000F10F400090044000A0044000B00440EF
:1055D00000C0044000D004400002000000040000AD
:1055E0000008000000100000002000003B3C3D3E91
:1055F0003F00000000A0064000B0064000C006408A
:1056000000D0064000A00E4000B00E4034800440A0
:105610000004000000000000348004400008000086
:105620000000000034800440001000000000000072
:105630003480044000200000000000002880044066
:105640000004000000000000288004400008000062
:10565000000000001F21232542440000010000003B
:1056600004000000080000001000000020000000FE
:1056700040000000800000003031323300B00340B1
:1056800000B00B403C800440000000080000000017
:10569000308004400000000800000000274900009E
:1056A000008003400090034000800B4000900B40BE
:1056B0000800000002000000020000003C800440DE
:1056C00000000001000000003C80044000000002D7
:1056D00000000000308004400000000100000000D5
:1056E0003080044000000002000000002A2B2C0043
:1056F00000C0024000D0024000C00A403C8004408C
:1057000000100000000000003C8004400020000069
:105710000000000030800440001000000000000085
:105720001A1B4100020000000300000005000000F9
:105730000700000002000000040000000600000056
:1057400008000000100000002000000040000000E1
:1057500080000000000100000002000000040000C2
:1057600000080000001000000020000000400000C1
:10577000008000003A000000388004400100000072
:1057800000000000001002400001020304050607AB
:1057900008090A0B0C0D0E0F001F1C1F1E1F1E1FD9
:1057A0001F1E1F1E1F001F1D1F1E1F1E1F1F1E1F2F
:1057B0001E1F000000001F003B005A0078009700E9
:1057C000B500D400F300110130014E010040024049
:1057D0003C80044010000000000000004B0000006E
:1057E00000C00C4000D00C403848010A1428303169
:1057F0003233343536373839414243444546000068
:10580000205800000000FF1F800000004C04000032
:10581000A05800008000FF1F701100006804000005
:1058200000D8B805EE57000001000000000000009D
:105830000000000000000000000000000000000068
:105840000000000000000000000000000000000058
:10585000000000001F0000001C0000001F000000EE
:105860001E0000001F0000001E0000001F000000BE
:105870001F0000001E0000001F0000001E000000AE
:105880000000000000000000000000000000000018
:105890000000000000000000000000000000000008
:0400000500000411E2
:00000001FF
